:020000040000fa
:08000000f67604000000000088
:020000040000fa
:10020000de6c040000000000800078000100370070
:100210000000e8001004e000fdff3a00010050007b
:10022000000006008001780000017800314078006d
:10023000005978000004e000fcff3a000300780059
:1002400000000600040037000204e0000a0032004b
:100250000000e8008100e80010417800914f510053
:10026000f9ff32000081eb0010407800914f500000
:1002700004003900020037000001eb0001003700e4
:100280001200200002007800000006006022b80082
:10029000060220000000d0008180d2000482d2003b
:1002a0008582d2000000a0000202520083825a0020
:1002b000030031000202420083824a000000a100d4
:1002c0000603e900f3ff3a0000000600efff070015
:1002d0000400be0000000600889fbe008a9fbe008a
:1002e0004400f800080f2000280288003400f800bd
:1002f000811f78002305900008f02f000a40e100dc
:1003000004003200280280004800b3002802880060
:10031000aa0188008304900043029000d305900056
:100320000000e900008008000e00000013049000a7
:1003300033059000320378004718c1000980080097
:10034000060000005e1cc4005210c500071d7800a6
:100350009a07cd005310c4004618c5004618c400c3
:100360000b00c800b107cd004f0078003400f90041
:100370004400f9004f05be004f04be000000060017
:100380008000900030009000018008000100000013
:100390000018eb000018eb00000006004400f80015
:1003a000889fbe008d1f7800040f20002402880063
:1003b00000047800e604400081067800f301200084
:1003c00038027800b90278000380080003000000ba
:1003d0005320c00051b2c7005380c6005112c7005d
:1003e000cf0678004f04be004400f900000006006c
:1003f0006000b800c3063700d0872200010020004b
:10040000c0063700f0d7200001002000bd063700ed
:100410006000b800bb0637006000b800b9063700be
:10042000d7c2a900d7e2a800c6e2a900c702a90066
:10043000c722a900c742a9008001fb004f19de00b6
:100440004711dd00a12c2000914078000174a1002b
:1004500049000700cae2b7008000fd0003017800f0
:100460000204b2004611de00460007000104a100ac
:100470004100070046000700030178000202b200b5
:100480004511de00024141003e0007000114a100b9
:10049000390007003e000700708161004411de0052
:1004a0004211dd00370007000124a10032000700df
:1004b00037000700c762a900c782a900c7a2a90028
:1004c000c7c2a900688161004311de004311dd004d
:1004d0002c0007000134a100270007002c000700b2
:1004e000648161004211de004411dd002500070037
:1004f0000144a1002000070025000700e2816100ff
:100500008301d100c519dd001e0007000154a100c0
:1005100083c070008000fd001d0007006140600086
:100520004600dd00170007000164a10080c07000d4
:100530008000fd0016000700cbe2a800acff07001a
:10054000cbe2a900c6e2a800c702a800c722a80003
:10055000c742a800c762a800c782a800c7a2a80017
:10056000c7c2a800d7e2a9007a0107000004e00092
:10057000fdff3a000000060082c070008000fd0010
:1005800000000600b12c2000914078000000060019
:10059000cbe2b7008000fd0000000600d7c2a90032
:1005a000d7e2a900c6e2a900c702a900c722a90094
:1005b000c742a9008001fb004f19de004711dd0092
:1005c000a12c2000914078000174a1004000070098
:1005d000cae2b7008000fd00030178000204b20007
:1005e0004611de003d0007000104a10038000700ad
:1005f0003d000700030178000202b2004511de0051
:1006000002414100350007000114a100300007003d
:1006100035000700708161004411de004211dd00e9
:100620002e0007000124a100290007002e0007006a
:10063000c762a900c782a900c7a2a900c7c2a900b2
:10064000688161004311de004311dd0023000700d3
:100650000134a1001e00070023000700648161002f
:100660004211de004411dd001c0007000144a1001e
:10067000170007001c000700e28161008301d10020
:10068000c519dd00150007000154a10083c07000ea
:100690008000fd0014000700614060004600dd009e
:1006a0000e0007000164a10080c070008000fd0002
:1006b0000d000700cbe2a8004dff0700cbe2a90028
:1006c000240107000004e000fdff3a0000000600de
:1006d00082c070008000fd0000000600b12c2000e8
:1006e0009140780000000600cbe2b7008000fd00da
:1006f00000000600d7c2a900d7e2a900c6e2a900ff
:10070000c702a900c722a900c742a900cae2a800df
:100710008001fb00030178000204b2004611de00f4
:100720003f0007000104a10040000700420007004d
:10073000030178000202b2004511de0002414100cf
:10074000370007000114a100380007003a00070035
:10075000708161004411de004211dd0030000700ad
:100760000124a1003100070033000700c762a9007f
:10077000c782a900c7a2a900c7c2a90068816100f9
:100780004311de004311dd00250007000134a10004
:100790002600070028000700648161004211de0086
:1007a0004411dd001e0007000144a1001f000700e6
:1007b00021000700e28161008301d100c519dd003d
:1007c000170007000154a10083c070008000fd00e5
:1007d00019000700614060004600dd0010000700be
:1007e0000164a10080c070008000fd0012000700bd
:1007f000cbe2a800fefe0700cbe2a900c6e2a800fb
:10080000c702a800c722a800c742a800c762a80064
:10081000c782a800c7a2a800c7c2a800fefe370072
:10082000b12c2000914078000000060082c07000ca
:100830008000fd0000000600cbe2b7008000fd0054
:1008400000000600d7c2a900d7e2a900c6e2a900ad
:10085000c702a900c722a900c742a900cae2a9008d
:10086000cb02a8008001fb00030178000202b20065
:100870004511de0002414100390007000114a100ca
:1008800032000700708161004411de004211dd007a
:10089000330007000124a1002c000700c762a90053
:1008a000c782a900c7a2a900c7c2a90068816100c8
:1008b0004311de004311dd00290007000134a100cf
:1008c00022000700648161004211de004411dd0056
:1008d000230007000144a1001c000700e281610021
:1008e0008301d100c519dd001d0007000154a100de
:1008f00083c0700016000700614060004600dd0004
:10090000170007000164a10080c0700010000700fc
:10091000cbe2a800b6fe0700cbe2a900c6e2a80021
:10092000c702a800c722a800c742a800c762a80043
:10093000c782a800c7a2a800c7c2a80085000700f8
:100940000004e000fdff3a000000060082c07000d5
:100950008000fd00cbe2b7008000fd000000060033
:10096000b12c200091407800000006000800fa0039
:10097000c6e2a800c702a800c722a800c742a80074
:10098000c762a800c782a800c7a2a800c7c2a80063
:10099000d7c2a800d7e2a80095fe0700cbe2a800c6
:1009a00093fe0700872c2000974378000708b200c9
:1009b000962c20001643780061036300952c2000dc
:1009c00095427800c42add00932c200093417800e2
:1009d000c219dd00942c200014427800922c2000d3
:1009e000124178004211de00912c200091407800e5
:1009f000c408de00c9c2bf004600de00610060001e
:100a0000cbe2a900e2c060000140700064416100d7
:100a1000024070006842620004407000f0c1610052
:100a2000034070000542b200054070004633dd000f
:100a300006407000074070000000fb000080fa00d4
:100a4000000006000800fa00c6e2a800c702a800dd
:100a5000c722a800c742a800c762a800c782a80092
:100a6000c7a2a800c7c2a800d7c2a800d7e2a900a1
:100a70005ffe0700cbe2a8005dfe0700962c200079
:100a80001643780061036300952c2000954278009e
:100a9000c42add00932c200093417800c219dd00a8
:100aa000942c200014427800922c200012417800ef
:100ab0004211de00912c200091407800c408de0035
:100ac000c9c2bf004600de0061006000cbe2a900a1
:100ad000e2c06000014070006441610002407000ab
:100ae0006842620004407000f0c161000340700081
:100af0000542b200054070004633dd00064070003c
:100b0000fff89700014070000000fb000080fa0031
:100b100000000600881f780000047800104078006c
:100b20000004e00002003a004f04780000000600d4
:100b30003bfe0700584078000004e000faff320056
:100b400037fe0700584078000004e000f8ff3a0044
:100b5000f5ff3700c6e2a800c702a800c722a80018
:100b6000c742a800c762a800c782a800c7a2a80001
:100b7000c7c2a800d7c2a800d7e2a9001cfe070080
:100b8000cbe2a8001afe0700c842e20003003d00c5
:100b9000cbe2a9001efe070010000500cbe2a90071
:100ba0001bfe070000000500881f78000044780045
:100bb00011fe0700cae2a900cb02a900cb22a900be
:100bc000cb42a900cb62a900cb82a900cba2a9008d
:100bd000cbc2a900cac2a900d7c2a900d7e2a90006
:100be000cbe2a900c6e2a900c702a900c722a9005a
:100bf000c742a900c762a900c782a900c7a2a9006d
:100c0000c7c2a900c6c2a900d3c2a900d3e2a900e5
:100c1000c7e2a9000840780060fe0700e0c0b3000a
:100c20005efe070010c0b3005cfe070060c0b300aa
:100c30005afe07004f047800000006008400a90057
:100c4000e7416000410920009140780082cfb30065
:100c500082c0600083c070008000fd0094e0b70097
:100c60008000fd00700160004411de0021082000ba
:100c700091407800e3cfb30083c0600082c0700071
:100c80008000fd0082e0b7008000fd006800600089
:100c90004300de00c10820009140780083c060005e
:100ca00080c07000010078008ce0b70000000600f2
:100cb0000000eb00c0b488009af6b7000000060000
:100cc0000002be00a3b480008000eb00b0b480003e
:100cd000808f51000e003d00688041004169210075
:100ce00060c1780069804100010040001000fb00f5
:100cf000000a78000380e800a0b48800c1692100e0
:100d0000810a400014004000a0b488008280fb00eb
:100d10000100780000000600889fbe000100e0008e
:100d200003003c000000eb004f04be000000060082
:100d3000800178008002eb0056c5b3001700200048
:100d4000380020000100e90087046000c2b4800080
:100d5000e20f5100570032004f003600e30f510000
:100d600035013200e40f5100420132008502e800f3
:100d70008301e800858f5000eaff32000900e0009f
:100d80000c003200c2b48000e20f5100e1003200da
:100d9000c7003600e30f510058013200e40f510044
:100da000450132008502e8008301e800858f50008c
:100db000dcff3200c2b48000e20f510019003200a3
:100dc000e20f510064003e000200e0007f003200ac
:100dd000e10f5100540032008502e8008304e8006e
:100de00089017800c2b48000e20f51001c0032007b
:100df000e20f51006a003600e30f51009900320003
:100e0000e40f5100350032008502e8008901e80056
:100e1000858f5000c3ff3200c2b48000e20f510042
:100e2000e7ff3a0002c8b300934f1100b40032004c
:100e3000a2b480000201e800a2b48800e30f5100d0
:100e4000e5ff34009836ef008502e8008304e800ef
:100e500089017800c2b48000e20f5100e4ff3a003b
:100e600002c8b300994f11009c003200a2b4800068
:100e70000201e800a2b48800e30f5100e2ff340051
:100e80009836ef008502e8008901e800858f500060
:100e9000e1ff3a00a3ff37000200e000ab003a0098
:100ea000934f1300b1ff3a00c7b48800a7b488007d
:100eb000aeff370002c8b300934f11002201320089
:100ec000a2b480000201e800a2b48800e30f510040
:100ed000a6ff34009836ef00a4ff3700a4b48000ca
:100ee000b2b48000820f5200c50035009836ef0082
:100ef000b2692100124178000282fb001381fb00dd
:100f000002014200f20fb200bfff3a000700780072
:100f10009af6b700a2b48800100020004f04be006b
:100f20000000060082ff3700934f13001a013200c1
:100f3000a2b48000fa0f5100c2ff34009436ef00d3
:100f400002c8b300934f11002d013200220020008f
:100f5000c2b48800a0ff3700e30f51003200320016
:100f6000e40f51009cff3a00a4b48000b2b48000aa
:100f7000820f520095003d00c26921001372790072
:100f80000401e800a2b48800b2692100124178008f
:100f900013414100020078009bf6b7008eff370036
:100fa0000200e0000e003a00934f130096ff3a0053
:100fb000c7b48800a7b488008502e8008901e8006a
:100fc000858f500094ff3a0056ff3700934f13006f
:100fd00081ff3a00c7b48800a7b488007eff3700bd
:100fe000e10f510088ff3a00934f1300e4003200f4
:100ff000a2b48000fa0f5100a1ff34009436ef0034
:1010000002c8b300934f11000101320022002000fa
:10101000c2b488008502e8008901e800858f50008d
:101020007dff3a003fff37001341780004c8b3004a
:10103000844f510068ff320082ff3e000281fb00b6
:10104000b2b48800b2692100124178001341410016
:10105000020078009bf6b70042002000c2b488006e
:101060005dff37001341780004c8b300844f51007e
:1010700065ff320082ff3e000281fb00b2b48800af
:10108000b26921001241780013414100020078004a
:101090009bf6b70042002000c2b488008502e80039
:1010a0008901e800858f50005bff3a001dff370083
:1010b0000200e00033003a00934f130039ff3a007a
:1010c000c7b48800a7b488008502e8008301e8005f
:1010d000858f500037ff3a0012ff37009436ef003b
:1010e000134078009bf6b700c8b488008502e8007a
:1010f0008901e800858f500047ff3a0009ff37005b
:101100009436ef00134078009bf6b700c8b488000f
:1011100031ff370002c8b300934f11008f00320037
:10112000a2b480000201e800a2b48800e30f5100dd
:101130001cff34009836ef008502e8008301e800c8
:10114000858f50001bff3a00f6fe3700e10f51007b
:1011500006ff3a00934f1300b5003200a2b480009e
:10116000fa0f51005bff34009436ef0002c8b30061
:10117000934f1100b600320022002000c2b4880054
:10118000fafe3700e10f510006ff3a00934f1300bb
:10119000a9003200a2b48000fa0f5100e5ff34002c
:1011a0009436ef0002c8b300934f1100ac00320038
:1011b00022002000c2b488008502e8008301e80014
:1011c000858f5000fbfe3a00d6fe37009836ef00c0
:1011d000b2692100124178000282fb001381fb00fa
:1011e00002014200f20fb200fbfe3a000700780055
:1011f0009af6b700a2b488001000200047ff37001d
:10120000c2692100137279000401e800a2b48800c9
:10121000b2692100124178001341410002007800b8
:101220009bf6b7008502e8008901e800858f500031
:10123000f9fe3a00bbfe37001341780004c8b30042
:10124000844f5100c9fe320022ff3e000281fb00a4
:10125000b2b48800b2692100124178001341410004
:10126000020078009bf6b70042002000c2b488005c
:10127000befe3700a4b48000b2b48000820f5200da
:10128000470035009836ef00b2692100124178001e
:101290000282fb001381fb0002014200f20fb20048
:1012a000b2fe3a00070078009af6b700a2b48800b0
:1012b0001000200019ff3700a4b48000b2b48000f1
:1012c000820f5200400035009836ef00b2692100cd
:1012d000124178000282fb001381fb0002014200f0
:1012e000f20fb20009ff32008502e8008301e80036
:1012f000858f5000affe3a008afe37001341780018
:1013000004c8b300844f5100a6fe320089ff3e009e
:101310000281fb00b2b48800b2692100124178005a
:1013200013414100020078009bf6b7004200200004
:10133000c2b488008502e8008301e800858f500070
:101340009cfe3a0077fe37009436ef001340780099
:101350009bf6b700c8b4880084fe37009436ef00cf
:10136000134078009bf6b700c8b488008502e800f7
:101370008301e800858f50008efe3a0069fe370039
:101380009436ec008502e8008901e800858f500062
:10139000a1fe3a0063fe37009436ec008efe370063
:1013a000c2692100137279000401e800a2b4880028
:1013b000b269210012417800134141000200780017
:1013c0009bf6b70069fe3700c269210013727900ed
:1013d0000401e800a2b48800b2692100124178003b
:1013e00013414100020078009bf6b7008502e80037
:1013f0008301e800858f50006efe3a0049fe3700f9
:10140000020078009bf6b700c8b4880072fe37006f
:10141000020078009bf6b700c8b488008502e80097
:101420008901e800858f50007bfe3a003dfe3700c1
:101430009436ec004dfe37009436ec008502e8004f
:101440008301e800858f50005afe3a0035fe3700d0
:10145000020078009bf6b700c8b4880043fe37004e
:10146000020078009bf6b700c8b488008502e80047
:101470008301e800858f50004efe3a0029fe3700b8
:10148000d082a900cc82a900c0fe2f00ebfd37005e
:1014900068d7bf006877ef000000fb00000006007f
:1014a0003600f800809fbe00829fbe00849fbe0071
:1014b000869fbe003400f80000c0b300a001880081
:1014c00010c0b30068f7b70010002000103107000b
:1014d0008400a9003400f9004f03be004f02be0093
:1014e0004f01be004f00be003600f900004006006c
:1014f0001600fa00889fbe008a9fbe00fa8557003a
:10150000004c2f0010000900b05d78001b01b100f5
:101510001001b10000c2b30021f4b70022f4b700fb
:1015200023f4b70024f4b70025f4b70026f4b7007d
:1015300027f4b70028f4b70029f4b7002af4b7005d
:101540002bf4b7002cf4b7002df4b7002ef4b7003d
:101550002ff4b70030f4b7003174ef000044eb0013
:1015600008457800fc845700890078007e80570089
:10157000d3fd07000004e0000c003200e34f5000f0
:101580001c003e00e24f500021003100e14f5000ae
:101590001300320000447800890078007e805700f4
:1015a000c7fd07000004e000f4ff3a000804e00073
:1015b0000400320080482f0090407800c1f79f005f
:1015c000d1f79f00c851e20068003a000a00fb0012
:1015d0004f05be004f04be000080fa000000060068
:1015e0001fb09700e80f50006e00320018c0b30023
:1015f000ddff3700e44f5000e6ff3a001fb09700d0
:10160000e10f50007b00320048c0b300d6ff370026
:101610009fb09700f48f5000deff3c000001eb000c
:101620000100e00049003400afb19700134078009a
:1016300021f4b700e18f50006c003200134090009d
:1016400022f4b70022002000828f50003f003400b7
:101650002340900023f4b700e38f50006300320072
:101660003340900024f4b70042002000828f5000e5
:10167000360034004340900025f4b700e58f500059
:101680005a0032005340900026f4b7006200200058
:10169000828f50002d0034006340900027f4b70083
:1016a000e78f5000510032007340900028f4b700db
:1016b00082002000828f50002400340003489000f4
:1016c00029f4b700e98f5000480032001348900019
:1016d0002af4b700a2002000828f50001b003400c3
:1016e000234890002bf4b700eb8f50003f003200ee
:1016f000334890002cf4b700c2002000828f5000c5
:1017000012003400434890002df4b700ed8f5000d4
:1017100036003200534890002ef4b700e20020005b
:10172000828f500009003400634890002ff4b70006
:10173000ef8f50002d0032007348900030f4b70056
:1017400002012000828f500042003200104221002e
:101750008040eb0001717800062f07000004e000d4
:1017600081ff32001ac0b3007fff37001042210012
:10177000801f78008b1f7800514b2f00811f78004d
:10178000a01c21006a2a0700e68757000a00fb0018
:101790004f05be004f04be000080fa0000000600a6
:1017a0008fff37002fb09700a0409000814d780048
:1017b000b0409000f1e79f009040780091ef9f00cb
:1017c00090409000c1459800c0409000d1ef9f002c
:1017d000d0409000e1ef9f00e040900081f79f0033
:1017e0007040900090f79f005fff37000101780084
:1017f000d6ff3700413007000004e000010032004e
:101800002ac0b3002fb0970090407800f0c4b30016
:1018100080cf5000090032000040e80080cf500027
:101820000e003200d04a2f001142210007000900ab
:10183000b05878008000b1004bff370090492f006e
:10184000114221000b000900b0587800c000b1001f
:1018500045ff370002012000bcff3700504a2f002f
:101860001142210007000900b05878008000b10043
:101870003dff3700800078000040eb00cf070700f5
:101880000140fe0038300700e20f5000fcff3a0034
:101890000000060000342000e822b700f0cb2f0043
:1018a000e422b600c520a80000000600881f7800ca
:1018b000b2070700210020000040eb00ba07070034
:1018c000d100200010c0b300b70707001a2e070090
:1018d00080c3b300b4fc0700e202a800e222a80023
:1018e000e802a800e822a800de02a900de22a90082
:1018f000e402a900e422a900e202a900a00f20004e
:10190000dcff0700e202a800e222a900a00f2000ed
:10191000d8ff0700e222a800e822a900a00f2000bb
:10192000d4ff0700e822a800e802a900a00f2000c9
:10193000d0ff0700e802a800cac2a80085fc070083
:101940000004e000fdff3a00c0c0b30013fb070035
:1019500080fc07000004e000fdff3a0070472f0004
:101960006cfc07007bfc07000004e000fdff3a0070
:1019700000c4b3005ffb070076fc0700004478005a
:101980000004e000fcff3a0060462f0061fc070005
:10199000007d2000b7ff0700cac2a900bdff0700f5
:1019a000084078009d08070020f4b7000004e0001c
:1019b0006f0032002054e20017003a001d2f07008c
:1019c0000004e00034003a0022c1b30041512f006e
:1019d000a01c2100571d07000000e000510032004c
:1019e0000000cf000000e9004f00de00c8f1b700a2
:1019f0007f0307004b060700adfc07008f050700bb
:101a00009ffe07008c00a800270507003b05070084
:101a10004f047800000006004efc07000004e000c0
:101a2000fdff3a0010c0b300dcfa0700502e210081
:101a3000010020003301070046fc07000004e0001d
:101a4000fdff3a00104d2f0032fc070041fc07005b
:101a50000004e000fdff3a0000c4b30025fb0700ce
:101a60003cfc07000004e000fdff3a00104e2f0090
:101a700028fc07008c20ef006004800070048800c0
:101a800070048000800488000040fe00e92e0700fa
:101a90000004e000ccff32002efc07000004e00050
:101aa000fdff3a0010c0b300bcfa0700502e210021
:101ab000010020001301070026fc07000004e000dd
:101ac000fdff3a00204f2f0012fc070021fc070009
:101ad0000004e000fdff3a0000c4b30005fb07006e
:101ae0001cfc07000004e000fdff3a0030502f000e
:101af00008fc07008c20ef00600480007004880060
:101b000070048000800488000040fe0022c1b30001
:101b100041512f00a01c2100061d07000000e0001d
:101b2000afff3a00a28e8000b38e8000a01c21007f
:101b3000922107000000cf000000e9004f00de0006
:101b4000c8f1b7002a030700f605070058fc070094
:101b50003a0507004afe07008c00a800d2040700df
:101b6000e60407004f04780000000600aaff3700d3
:101b7000a11e2100e11c070020f4b7002054e20060
:101b80008eff3200a4ff37000040eb000f07070074
:101b90005e050700e305070045fc0700e202a80018
:101ba000e222a800e802a800e822a800803821006c
:101bb00030ff07000001eb008000eb007000200008
:101bc00027030700fc3fef008138210010c0b3005d
:101bd000fa0637000200fa00889fbe00e8ff800086
:101be000e20f54001e00320007003600e30f5400dd
:101bf00085003200e40f5400480032004f04be005c
:101c00000080fa00000006000800e00033003a00ff
:101c1000398e8000e18f540083003200f7ff3900d5
:101c200068805400e40f5000f4ff3e00cac2a800d0
:101c30000001eb008000eb000900780008030700ba
:101c4000fe7fef008138210010c0b300db060700e3
:101c50004f04be000080fa0000000600eaff3700d3
:101c6000308e8000e20f500036003200e30f50004b
:101c700039003200e10f5000e0ff3a004000200040
:101c8000e0ff880021050700b2fb07000004e00028
:101c9000fdff3a0010c0b30040fa0700502e2100ab
:101ca0000100200097000700aafb0700004478000d
:101cb0000004e000fcff3a0000522f0095fb0700f3
:101cc00081bb200008407800bc0607004f04be001e
:101cd0000080fa0000000600cbff3700e10f54003f
:101ce000c6ff3a00388e8000e20f5400c3ff3a006e
:101cf000e222a900c631ef00813821000040eb004c
:101d0000ae060700f7040700e8ff88004f04be0096
:101d10000080fa0000000600bbff3700308e800014
:101d2000e10f500050003200e20f5000b3ff3a00c4
:101d3000c851e20003003200a11c2100a0522f0074
:101d4000dc28070090ff07004f04be000080fa0067
:101d500000000600acff3700e2c2bf000000d10067
:101d6000610060000004a20000404000212e20001d
:101d7000914078000114a10080c070008000fd0037
:101d8000e2e2b7008000fd005b050700e680570037
:101d9000670607000000e00098ff3200800078002e
:101da00066805700dcfb0700e10f4000e5ff3200d2
:101db000e10f500091ff3a00cdfd07000004e00064
:101dc00030003200e24f50008cff3e00e822a900b4
:101dd00030002000e0ff8800cc040700813e200096
:101de0000040eb00750607000201200011422100af
:101df000600020009a0207004f04be000080fa0035
:101e00000000060080ff3700308e8000e20f500097
:101e10007aff3a0080532f00fa2e0700d082a900e3
:101e200059ff0700c8ff3700411f20000840780015
:101e300062060700cac2a800e202a900e9ff880002
:101e400008007800feffb7000801780088007800dd
:101e500009007800820207004f04be000080fa00eb
:101e60000000060068ff370081bb20000040eb0047
:101e7000520607004f04be000080fa000000060072
:101e800061ff370040ff07000201200011422100de
:101e900050002000720207004f04be000080fa00cc
:101ea0000000060058ff370080fe0700ae2e070036
:101eb000308e88000000e00007003200ed0f500077
:101ec0000900320043ff0700a72e0700308e88006c
:101ed0000000e000f9ff3a00fe5fe20007003a0070
:101ee0000140fe00f1ff3700cac2a9000001e20074
:101ef000feff320010c0b300feffb7000040fe003e
:101f0000eaff37000002be00e00f5000e08f5800eb
:101f100001003c00000006000000e90067006000ce
:101f20006101b8000060fe001000200001002000e8
:101f3000800f5200818f5a00f6ff3200e00f5100ef
:101f4000e08f59002b003200800f5100818f590023
:101f5000220032002600200007002000860f5100da
:101f6000878f59001a003200e30f5100e08f5900ab
:101f700014003200e40f5100e08f59000e003200cf
:101f8000e50f5100e08f590008003200e60f5100c4
:101f9000e08f5900020032000060fe000600be0023
:101fa0000060fe0061004000e08048000060fe002c
:101fb00061004000e08048000060fe0061004000d9
:101fc000e08048000060fe0061004000e0804800c2
:101fd0000060fe0061004000e08048000060fe00fc
:101fe00061004000e0804800800f5200818f5a005d
:101ff000c8ff32000060fe0061004000e080480041
:102000000060fe000060fe000060fe000060fe0058
:102010000060fe000060fe000060fe0067004000ff
:10202000e0804800800f5200818f5a00b9ff3200d3
:102030000060fe0061004000e08048000060fe009b
:102040000060fe000060fe000060fe000060fe0018
:102050000060fe000060fe0067004000e080480075
:10206000800f5200818f5a00e2ff3a00a9ff37002b
:102070003400f800881f78002d0007004f04780016
:102080008020a900ffff37003400f800881f780087
:10209000270007004f0478008060a900ffff370089
:1020a0003400f800881f7800210007004f047800f2
:1020b0008040a900ffff37003400f800881f780037
:1020c0001b0007004f0478008080a900ffff370045
:1020d0003400f800881f7800150007004f047800ce
:1020e0008020a900ffff37003400f800881f780027
:1020f0000f0007004f0478008060a900ffff370041
:102100003400f800881f7800090007004f047800a9
:102110008040a900ffff37003400f800881f7800d6
:10212000030007004f0478008080a900ffff3700fc
:1021300008c0b300a801880000000600515f21001c
:102140009140780001007800f6f5b700f755e200fd
:102150001000320090c0b300920020000104e000a3
:1021600005003a00f6f5b7007110b900a25421003d
:1021700000004100000006000140e9000081fb0072
:10218000f6f5b7007110b900a2542100000041001b
:10219000f8ff37000000eb00425f21001241780099
:1021a000020ce100f3ff320090c0b3009200200067
:1021b0000104e000ebff3200efff3700889fbe0014
:1021c0008a9fbe008c1f780000057800814478004b
:1021d00082457800034678005efa070000447800e4
:1021e0000004e000fcff3a00f0c0b300ebf8070089
:1021f0000ab088008004fd00fbf5b700fdf5b700cc
:102200008004fd008005fd00fef5b7008005fd009f
:102210000006fd00fcf5b7000006fd000004fd000f
:10222000faf5b7000004fd004afa07000004e000d8
:10223000fdff3a000940780079f8070045fa0700e9
:102240000004e000fdff3a0030c1b300d3f80700fe
:102250004f0678004f05be004f04be000000060088
:10226000881f7800fb55ec0000447800fbf5b700b0
:10227000fed5bf00804f5400100036000881fb00df
:102280008080fb000100e800f8c7b300800f510018
:102290000a0032000180e800e8c2b300800f51005c
:1022a00006003200801f7800fdd5bf00fbf5b700a7
:1022b0004f007800d85f21001844780025fa070005
:1022c0000004e000fdff3a000840780054f80700e1
:1022d00020fa07000004e000fdff3a0030c1b3001f
:1022e000aef807004f04780000000600881f780051
:1022f000fbd5bf00d15f2100914078000104e100cf
:102300001a0032000044e90008007800fbf5b7002d
:102310008880fb00fed5bf000080fb000000e800c5
:10232000808f50000c0032000afa07000004e00021
:10233000fdff3a000840780039f8070005fa070069
:102340000004e000fdff3a0030c1b30093f807003d
:102350004f04780000000600f8c7b300fdf907003d
:102360000004e000f0ff3a00f2ff3700fed5ec0079
:10237000fbf5b700e8c2b300f6f907000004e0007f
:10238000e9ff3a00ebff3700fbd5bf000081fb00ff
:10239000fed5bf008080fb000180e800800f510067
:1023a000250032000100e800800f51001f003200bc
:1023b000fcd5bf00fa55e3001e003100e5f9070027
:1023c0000004e000fdff3a0070c1b30073f807009d
:1023d000fad5bf000081fb0001b08000b35f21008f
:1023e0009341780003f178000040e800faf5b70067
:1023f000801f7800fdd5bf00fbf5b7004f007800c7
:10240000d4f907000004e000fdff3a00fbd5bf004f
:1024100003f80700cff907000004e000fdff3a00d1
:1024200030c1b3005df8070000000500fad5bf0019
:1024300009003a0000000500fad5bf000080fb004b
:102440000041eb0001b0800002f07800fad5bf0037
:102450000080fb00000006000040e900faf5b7002c
:102460000080fb0001b0800060c07800fbf5b70081
:10247000b8f907000004e000fdff3a0000c2b30015
:10248000e7f70700b3f907000004e000fdff3a009a
:1024900030c1b30041f80700aef907000004e000c6
:1024a000dfff3200abf907000004e000faff3a005a
:1024b000dbff3700881f78000004780040aa8800fe
:1024c000ea0f500005003200a2f907000004e00006
:1024d000fdff3a0010c0b30030f80700502e210075
:1024e0000100200087fe07006140b800eb0f50009c
:1024f000e08f58001f003e00006001002d003700f3
:102500003e0037000900370044003700550037000f
:102510005c0037007200370079003700890037000f
:1025200090003700a50037001400370089f9070034
:102530000004e000fdff3a00d03b2f0075f90700d2
:1025400084f907000004e000fdff3a0000c4b30076
:1025500068f807007ff907000004e000fdff3a007b
:10256000a0382f00f815ab0001003a0060382f00aa
:1025700068f907004f0478000000060075f90700ad
:102580000004e000fdff3a0010c0b30003f80700ac
:10259000502e2100010020005afe07006df90700af
:1025a0000004e000fdff3a00e0442f0059f9070065
:1025b000f0ff370067f907000004e000fdff3a0074
:1025c000f0392f0053f9070062f907000004e0001a
:1025d000fdff3a0000c4b30046f807005df90700ac
:1025e0000004e000fdff3a00e0382f0049f9070041
:1025f0004f04780000000600e0ff370055f907009f
:102600000004e000fdff3a00803b2f0041f9070085
:102610004f04780000000600d8ff37004df907008e
:102620000004e000fdff3a00a03c2f0039f907004c
:1026300048f907000004e000fdff3a0000c4b300c1
:102640002cf8070043f907000004e000fdff3a0002
:10265000bafe07002ff907004f04780000000600bb
:10266000c6ff37003bf907000004e000fdff3a0019
:10267000b03d2f0027f907004f0478000000060046
:10268000beff370033f907000004e000fdff3a0009
:10269000b03e2f001ff907002ef907000004e000ec
:1026a000fdff3a0000c4b30012f8070029f9070043
:1026b0000004e000fdff3a00f0c0b300b7f70700e8
:1026c000d3c0b30092c3b30001c3b300a053210031
:1026d000bafe07004f04780000000600a7ff37008d
:1026e0001cf907000004e000fdff3a00c03f2f0086
:1026f00008f907004f047800000006009fff37002c
:1027000014f907000004e000fdff3a00b0402f007c
:1027100000f907000ff907000004e000fdff3a0090
:1027200000c4b300f3f707000af907000004e00053
:10273000c7ff320007f907000004e000faff3a0083
:10274000c3ff370003f907000004e000fdff3a0073
:10275000c0412f00eff807004f047800000006008a
:1027600086ff3700fbf807000004e000fdff3a0099
:10277000d0422f00e7f80700412b07000004780043
:102780000000e0007bff3200f2f807000004e000e8
:10279000fdff3a0000c4b300d6f70700edf80700cc
:1027a0000004e000fdff3a0008007800d9f80700b7
:1027b0004f0478000000060070ff3700e5f80700be
:1027c0000004e000fdff3a00caf70700e1f8070047
:1027d0000004e000fdff3a00d0432f00cdf80700d1
:1027e0004f0478000000060064ff37000000060078
:1027f000881f78000044eb000004fd00f6f5b700e8
:10280000f5f5b700f4f5b700f7f5b7000004fd00e3
:10281000f815a8001000200026ff07000004fd00a6
:102820005af5b7006bf5b7007cf5b7008df5b7002a
:102830009ef5b7000004fd000004fd00aff5b700f1
:10284000c0f5b700d1f5b700e2f5b7000004fd0010
:10285000f375ef000000eb004f0478000000060065
:10286000889fbe000001780001047800e10f50004d
:1028700020003200e70f50001900320040aa80000b
:102880000100200061005000e0805800ea0f500075
:10289000e08f5800020036004f04be000000060022
:1028a0000060010018003700c2003700b90037008f
:1028b000d200370092003700ac0037009900370093
:1028c000c400370069003700500037001700370098
:1028d000fa55e20002003a00eb2a0700ac2b070091
:1028e00010002000f3fe07004f04be0000000600a9
:1028f000ebff3700b0002000eefe07004f04be00e3
:1029000000000600e6ff3700e80f51003c013200ee
:10291000e90f5100e0ff3a0020002000e5fe07002b
:102920004f04be0000000600ddff3700e50f510038
:102930001c003200e60f5100d7ff3a0085f807006f
:102940000004e000fdff3a0010c0b30013f70700d9
:10295000502e2100010020006afd07007df80700cd
:102960000004e000fdff3a000800780069f8070065
:1029700078f807000004e000fdff3a0000c4b3004f
:102980005cf7070073f807000004e000fdff3a0061
:10299000c0452f005ff807004f04be00000006008e
:1029a000bfff37006bf807000004e000fdff3a00ae
:1029b00010c0b300f9f60700502e210001002000de
:1029c00050fd070063f807000004e000fdff3a0037
:1029d000080078004ff807005ef807000004e000e8
:1029e000fdff3a0000c4b30042f7070059f80700a2
:1029f0000004e000fdff3a0040452f0045f80700c5
:102a00004f04be0000000600a5ff3700ea0f51008a
:102a1000afff32008c003e00e80f51009eff3900ee
:102a20004cf80700004478000004e000fcff3a0086
:102a300090c0b3002ff70700fa55e20008013200fa
:102a40000004fd00faf5b7000004fd0041f807009e
:102a50000004e000fdff3a00403b2f002df8070086
:102a60004f04be00000006008dff3700ea0f510042
:102a7000cc003200eb0f510078003200e80f51001b
:102a800085ff3a00662a0700800478000000e00015
:102a900081ff32002ff807000004e000fdff3a003c
:102aa00000c4b30013f7070009007800d6f507004b
:102ab0000044780027f807000004e000fdff3a001a
:102ac0000900780013f80700ef4f540072ff3c0034
:102ad00020f807000004e000fdff3a0000c2b30048
:102ae0004ff607000844e800f04f54006aff320038
:102af00018f807000004e000f5ff3a00f7ff370080
:102b0000e90f5100ae00320077003e00e80f51009f
:102b100061ff3a00d2fd07004f04be00000006002e
:102b20005fff3700e90f5100a90032007a003e0034
:102b3000e80f510058ff3a00f6d5bf00515f210061
:102b4000914078000104e100360032000040e800c6
:102b5000f6f5b700ea4f50004fff3a00f675ef0068
:102b60004f04be00000006004dff3700e90f510082
:102b70003a0032006f003e00e80f510046ff3a0075
:102b8000400020004bfe07004f04be00000006007e
:102b900043ff3700e90f5100f9ff320073003e0098
:102ba000e80f51005cff32004f04be000000060039
:102bb0003bff3700e90f51001500320033003e00a3
:102bc000e80f510046ff32004f04be00000006002f
:102bd00033ff3700e90f510041ff320024003e006f
:102be000e80f51002cff3a006000200031fe070082
:102bf0004f04be000000060029ff3700e90f510016
:102c0000f9ff320052003e00e80f510022ff3a0067
:102c10003000200027fe07004f04be000000060021
:102c20001fff3700f4d5bf00f6f5b700f755e200f7
:102c3000c6ff3a000104e100c4ff3a004f04be00a1
:102c40000000060016ff3700eb0f510024ff320092
:102c50004f04be000000060011ff37008000200076
:102c600014fe07004f04be00000006000cff3700f2
:102c7000ea0f5100f4ff3a00900020000dfe07001b
:102c80004f04be000000060005ff3700ea0f5100a8
:102c9000edff3a00c0af8000800078000100a20084
:102ca000e18060000000a10001007000c0af88005a
:102cb000a8f707000004e000fdff3a0000c4b300dd
:102cc0008cf60700a3f707000004e000fdff3a00c0
:102cd000a0382f00f815ab002eff3a0060382f0007
:102ce0008cf707002cff3700ea0f51004c00320030
:102cf000eb0f5100e8fe3a0096f707000004e000f1
:102d0000fdff3a00c0c0b30024f6070040002000d9
:102d1000e8fd07009cff3700ea0f5100f0fe32008b
:102d2000eb0f5100b0ff32004f04be000000060060
:102d3000dbfe3700ea0f5100c3ff3a0070002000ad
:102d4000dcfd07004f04be0000000600d4fe370083
:102d5000ea0f5100bcff3a0050002000d5fd0700eb
:102d60004f04be0000000600cdfe3700ea0f510000
:102d7000b5ff3a00f5d5bf0012c1b3000440bc0056
:102d8000a05421000000410051290700802a0700bb
:102d900010002000c7fd07004f04be000000060021
:102da000bffe370002007800c2fd070010c0b3006c
:102db000faf5b7004f04be0000000600b8fe370069
:102dc0004afd07004f04be0000000600b4fe3700b5
:102dd000f6d5bf00415f2100914078000104e10079
:102de000290032000004e0000a003a0002407800a6
:102df000f6f5b7004f04be0000000600a8fe37003d
:102e000002007800abfd07004f04be000000060082
:102e1000a3fe37000040e900f6f5b700f5ff3700e4
:102e200059fd07000004e0009bfe320049f707004f
:102e30000004e000fdff3a00c0c0b300d7f5070072
:102e400000b0800022290700512a0700100020004e
:102e500098fd07004f04be000000060090fe3700fa
:102e600010c0b300faf5b7003af707000004e0001d
:102e7000fdff3a00003b2f0026f707004f04be007d
:102e80000000060086fe3700acfc07004f04be00c1
:102e90000000060082fe3700000006000000060069
:102ea0000000060000000600000c2000c222b7004f
:102eb00000032000c822b700d5a2a8000108200006
:102ec00001007800c020b700820c200002007800ca
:102ed000c220b70001007800c420b70002007800cb
:102ee000c620b7009bc0bf00efc04000014060009b
:102ef0000064a0009be0b7000000060010168000f0
:102f0000a0ba88004016800090ba8800a016800001
:102f100080ba880085e0a9008de0a80000000600c6
:102f20003600f800809fbe00829fbe00849fbe00d6
:102f3000869fbe00889fbe008a9fbe003400f800b6
:102f400000c0b300a0018800191680004a16800056
:102f5000ab168000a0ba800000806c0000047800ee
:102f6000080cb2000068a300020032000968a30048
:102f70002e0032000878a300020032000978a30076
:102f80002c00320080ba800000806d0000d8a300c1
:102f9000020032000bd8a3002200320090ba800059
:102fa00000006d000058a300020032000a58a30080
:102fb0000d003200a9ba88009aba88008bba88003e
:102fc00085e0a9003400f9004f05be004f04be00a3
:102fd0004f03be004f02be004f01be004f00be00b7
:102fe0003600f90000400600722a0700a9ba8800de
:102ff0009aba88008bba880085e0a9003400f900ed
:103000004f05be004f04be004f03be004f02be007e
:103010004f01be004f00be003600f9000040060020
:10302000f1ff3700612a0700dcff37005b2a070049
:10303000d0ff37005b2a0700d2ff37000180200055
:10304000629020008018eb008018eb0001007800ef
:103050008018eb008008eb00e40040008008eb00e3
:10306000e60040008008eb00e80040008008eb002c
:10307000ea0040008008eb00ec0040008008eb0014
:10308000ee0040008008eb00f00040008008eb00fc
:10309000f2004000828f5000ebff3a0040342000e5
:1030a0000015880068405000a262b70063404000ed
:1030b000a462b7006f4050001261b70020002000ea
:1030c000700888008ce0a9003000200030158800ce
:1030d000aa22ef0070ff2f00401588008d60a80025
:1030e0000000060030002000e0ba88000000eb007d
:1030f000f0ba88005008880084e0a9008560a90023
:10310000a1e2a80013e1a8000000060013e1a90055
:10311000a1e2a900000006003600f800809fbe0072
:10312000829fbe00849fbe00869fbe003400f800d0
:1031300000c0b300a001880084e0a9008560a90058
:10314000e1ba80000280200001804000031480006a
:10315000033079000100e8000000400013148000f3
:10316000033079000180e800000040002314800053
:103170000330790063804000000040003314800079
:103180000330790064804000000040004314800058
:103190000330790065804000000040005314800037
:1031a0000330790066804000000040006314800016
:1031b00003307900678040000000400073148000f5
:1031c00003307900688040000000400083148000d4
:1031d00003307900698040000000400093148000b3
:1031e000033079006a80400000004000a314800092
:1031f000033079006b80400000004000b314800071
:10320000033079006c80400000004000c31480004f
:10321000033079006d80400000004000d31480002e
:10322000033079006e80400000004000e31480000d
:10323000033079006f80400000004000f3148000ec
:1032400003307900f0804000e1ba880030042000ab
:10325000808f50001d00320030082000808f500009
:10326000070032003400f9004f03be004f02be00d9
:103270004f01be004f00be003600f90000400600be
:1032800000488000004088001348800013408800f8
:10329000204880002040880030002000e0ba8800ec
:1032a00001042000f1ba8800992907003400f900d0
:1032b0004f03be004f02be004f01be004f00be00d4
:1032c0003600f90000400600edff37005e37ef00e2
:1032d000300020008e2907003400f9004f03be00a3
:1032e0004f02be004f01be004f00be003600f90085
:1032f00000400600e2ff3700f0ba80000000400006
:103300000180200001004000000006000da2a8007e
:103310000f42a8000e22a90020002000a010880063
:10332000000006002073210015f407008000eb0068
:1033300091b0880071b088003000200040b0880053
:1033400011b0880031b0880021b08800000006006c
:10335000889fbe008a9fbe008c9fbe0080047800bc
:1033600081067800cb6021009b4578005ab0800030
:1033700094b0800075b0800087b0800046b08000b7
:103380000006eb008c007800b803200061817c000f
:1033900020b08000820f500001003d000200780044
:1033a000f1000700010034008001780033b088008c
:1033b00010b08000800f510053003c0061003d00c0
:1033c000170020000003eb00880f530005003c00ad
:1033d000e18f5200880032006b003900e28f52000a
:1033e0003c0032008180e80061817c0020b08000d8
:1033f000820f500027003500db0007000100340079
:103400008001780033b0880010b08000800f510038
:10341000400034008003eb0007037800880f53005e
:103420000c003c00e18f5200630032001b003100b1
:103430000700e00020003a000402e800e30f520019
:10344000940034008045eb000005eb000a02780090
:10345000150020008180e80000082000808f5000c7
:10346000caff3a000b0078000cf6b7005ab088008b
:1034700094b0880075b0880087b0880046b0880096
:103480000c0078004f06be004f05be004f04be0082
:103490000000060002007800d7ff3700e28f5200dc
:1034a000ecff3a000402e800e40f52003000340060
:1034b000ea0f52002c0034000002eb008402780076
:1034c0008180e80000082000808f5000afff3a00a4
:1034d000e4ff37000402e800e40f52004f0034001c
:1034e000ea0f5200710034000002eb008402780001
:1034f0008180e80061817c0020b08000820f500054
:10350000bdff3d00e3ff37008003eb0007037800b9
:10351000adff3700800f51000e003500880f5300bb
:10352000450034000236ef000002eb008402780010
:103530008180e80000082000808f500093ff3a004f
:10354000c8ff3700880f53003f003c000603e80027
:103550009dff3700170020000003eb00880f530089
:10356000bcff3c00afff3700e18f53006100320029
:10357000250020008180e80000082000808f500096
:1035800082ff3a00b7ff37000700e000d6ff3a009d
:103590000402e800e30f520034003c008702780088
:1035a0008180e80061817c0020b08000820f5000a3
:1035b00091ff3d00b7ff37000402e800e60f52001c
:1035c000a4ff3a000a38dd0080c575000a05e8004e
:1035d0000002eb00e80f55009eff3a000002eb00ee
:1035e000250020008180e80000082000808f500026
:1035f00066ff3a009bff37000402e800e60f520026
:1036000078ff3a000a38dd0080c575000a05e80039
:103610000002eb00e80f550072ff3a002500200081
:103620008180e80061817c0020b08000820f500022
:1036300071ff3d0097ff37000603e800880f530035
:1036400084ff3c0077ff37000236ef000002eb00fa
:10365000840278008180e80061817c0020b08000d5
:10366000820f500064ff3d008aff370087457800d5
:103670000705780007027800150020008180e80027
:1036800061817c0020b08000820f50005aff3d0015
:1036900080ff37008002eb008180e80000082000f6
:1036a000808f500039ff3a006eff3700e18f5300e2
:1036b000daff3a008b767e000c06e80020b080002e
:1036c000008041000080d10010b0880030b0880038
:1036d00020b088000002eb00840278008180e800be
:1036e00061817c0020b08000820f500042ff3d00cd
:1036f00068ff37008b767e000c06e80020b0800063
:10370000008041000080d10010b0880030b08800f7
:1037100020b088000002eb00840278008180e8007d
:1037200000082000808f500018ff3a004dff37003e
:10373000881f7800010478006190200017f30700cb
:1037400023732100629020004161210000042000c9
:10375000e1f207008800780040612100fcfe0700cc
:103760004f0478000000060020b0880030b08000d0
:1037700082017800800f5100000006000000eb007d
:1037800060ba880040ba880070ba880050ba8800d1
:1037900090592100d008880000002800f008880017
:1037a0008ea0a800000006000080fb000000400082
:1037b000c274210001307900000006000080fb0087
:1037c0000000400082742100faff37000080fb00f7
:1037d00000004000827421008000eb00f5ff3700fc
:1037e0003600f800809fbe00829fbe00849fbe000e
:1037f000869fbe003400f80000c0b300a00188001e
:1038000086a0a9006b04070040ba80000000e00019
:10381000030032000000e90040ba880017003200bf
:1038200050ba80000000e000030032000000e90010
:1038300050ba8800070032003400f9004f03be0080
:103840004f02be004f01be004f00be003600f9001f
:103850000040060070ba80002d2807003400f900ef
:103860004f03be004f02be004f01be004f00be001e
:103870003600f90000400600f6ff370060ba80000d
:1038800023280700e6ff37000080fb005011880066
:1038900026c2bf000008a300fdff320050118000c7
:1038a0000080fb0000000600401f2000c0ba880016
:1038b00000c0eb00f4ff0700e14f400002003200bf
:1038c0005817e200faff3a0000c0ea000080fb004f
:1038d0000000e9004f00de0000000600e922a80019
:1038e00000c0eb00e8ff0700e802a80000000600a7
:1038f000881f7800e802a900e922a90000c0eb00b7
:10390000e1ff0700e8ff0700000478001000200036
:103910000800e000020032004f04780000000600ba
:10392000eeff0700080078004f0478000000060052
:10393000fbff3700889fbe008004780001047800f8
:10394000e802aa0040062000d0ba880000c0eb00c0
:10395000cdff0700e14f400005003a005a17e20092
:10396000faff3a000000eb004f04be000000060022
:10397000e24f4000fbff3a008800d10009017800c7
:103980008001eb00f40f20005411880026c2bf0014
:103990000008a300fdff32005011800000497800ac
:1039a0005411880026c2bf000008a300fdff3200aa
:1039b00050118000104198000281e8008301e80066
:1039c000838f5000f0ff3a0000c0eb00aeff07000d
:1039d00000c0eb00acff0700100020004f04be0049
:1039e00000000600e2ff3700889fbe0080047800d8
:1039f00001447800e802aa00abff07000000e000e5
:103a000003003a000000eb004f04be000000060077
:103a1000084078009cff0700e34f44001b00320081
:103a200089007800021020001180fb0050118800ee
:103a300026c2bf000008a300fdff32005011800025
:103a4000114090000080fb00501188008180e80048
:103a500026c2bf000008a300fdff32005011800005
:103a60000201e900f0ff3a0000c0eb0086ff07000a
:103a700000c0eb0084ff070000c0eb0082ff0700de
:103a80007f006000e50f5000deff3a0010002000cc
:103a90004f04be0000000600ddff3700889fbe0017
:103aa0008a1f7800004578000204be000004e00090
:103ab0005200350089ff07008dff0700f10f20003d
:103ac0000000e00004003a00010078004f05780093
:103ad0004f04be00000006000a4078000064a00009
:103ae00069ff07004848de000100200066ff07006c
:103af0004048de000100200063ff07004849dd0068
:103b00004840de0000007100c848de005eff07008c
:103b1000084078005cff070050c9b3000a04e000c9
:103b2000040032006e405000e84f550001003200a2
:103b300010c0b30054ff0700ec4f55002c003200ba
:103b400000c0eb0050ff07000004e00022003d0031
:103b500000c0eb004cff07000004e0001e003d0029
:103b600000c0eb0048ff07000004e0001a003d0021
:103b700000c0eb0044ff07000004e00016003d0019
:103b800000c0eb0040ff07000004e00012003d0011
:103b900000c0eb003cff07000004e0000e003d0009
:103ba00000c0eb0038ff07000004e0000a003d0001
:103bb00000c0eb0034ff07000004e00006003d00f9
:103bc00000c0eb0030ff07000004e00002003d00f1
:103bd00000c0eb002cff07008080fb000100780094
:103be0004f0578004f04be0000000600baff370002
:103bf00000c0eb0024ff0700d1ff37000a74a100ca
:103c00006011b80070c3b300a4ff0700e14f50007b
:103c1000a8ff36008080fb00f0ff37000400fa00a8
:103c2000889fbe008a1f7800110020000004e00079
:103c30002c003a006cd7bf006204600027003a00f5
:103c4000d1132000411188000000280030118800a5
:103c50004111880000c0eb000bff070000c0eb0023
:103c600009ff070000c0eb0007ff070000c0eb00e2
:103c700005ff070000c0eb0003ff070000c0eb00da
:103c800001ff070000c0eb00fffe070000c0eb00d3
:103c9000fdfe070000c0eb00fbfe070000c0eb00cc
:103ca000f9fe07006011b800084078007bff0700ac
:103cb00000447800e14f5000150032008044eb00d2
:103cc0008000eb00b1ba880004ff07000904e0009f
:103cd00009003a002622ef006c17a8006cd7bf003d
:103ce0008080fb00010078004f0578004f04be0083
:103cf0000080fa00000006006c17a900f0132000f5
:103d0000401188006cd7bf008080fb00f5ff3700b2
:103d1000803e2000d0ba8800a21a200003002000b4
:103d200080c0b3005dff0700e14f50003b003a0048
:103d300000c0eb00d4fe0700e0f79f0000c0eb00de
:103d4000d1fe0700f0f79f0000c0eb00cefe070099
:103d500080ff9f0000c0eb00cbfe07008040780092
:103d600090ff9f000ff89700e14f5000d3ff3a00fb
:103d7000a0cab30080cf5000d0ff3a005a17e2002b
:103d800006003200020020000300240090cab300a5
:103d900042ff07000004e000f8ff3a005a17e20073
:103da000c6ff32006011b800a0c3b3003bff07009c
:103db0000004e000c1ff3a0000c0eb00b2fe0700c3
:103dc000e0f79f0000c0eb00affe0700f0f79f0098
:103dd00000c0eb00acfe070080ff9f0000c0eb00be
:103de000a9fe070090ff9f00eff097000180fb0005
:103df000c9c0b300c10020000068a300b1ff3a00b1
:103e000049c0b30041002000b1ba8800b3fe0700ea
:103e10000904e000afff3200b7ff37006011b800bf
:103e200090cab3001dff070029c0b3009acab300af
:103e3000e14f5000020036008844780008457800c1
:103e40005a17e200050032006011b8000a407800fd
:103e500012ff07000004e000f9ff3a005a17e200e1
:103e600096ff3200022020000300200000c1b300b2
:103e70000aff07000004e00090ff3a008980fb0081
:103e8000b1ba880095fe07000904e00091ff3200f6
:103e900099ff3700110020000004e00002003a0002
:103ea0006cd7bf008080fb00010078000000060096
:103eb000889fbe008a9fbe008c1f78008104780016
:103ec000044478000004e000c1003a000404e0006b
:103ed000bf0032006cd7bf006105600030002000d9
:103ee0000d003a005677ab000f003200e14f54004e
:103ef000aa00320020c1b300e8fe07000004e00081
:103f00001000320075fe07000000eb000804e0001e
:103f100001003200100020004f0678004f05be005f
:103f20004f04be00000006004918dd00c711de0086
:103f3000830170004911dd00e14f5400edff3a00ac
:103f400096003700084578000046eb000840e9007d
:103f500067446000012020000900780075fe07001a
:103f60000000e000880032000920b0000a45e900a6
:103f70008a4f5600840032000804e0003f003200ff
:103f8000e14f540034003200e24f54002b00320065
:103f9000e34f540022003200e44f54001900320075
:103fa000e54f540010003200e64f54000700320085
:103fb00001202000090078005efe07000000e000fc
:103fc000710032000920b0000a45e90001202000fc
:103fd0000900780057fe07000000e0006a00320088
:103fe0000920b0000a45e9000120200009007800fe
:103ff00050fe07000000e000630032000920b0001e
:104000000a45e900012020000900780049fe070068
:104010000000e0005c0032000920b0000a45e90021
:10402000012020000900780042fe07000000e000a7
:10403000550032000920b0000a45e90001202000a7
:10404000090078003bfe07000000e0004e0032004f
:104050000920b0000a45e90001202000090078008d
:1040600034fe07000000e000470032000920b000e5
:104070000a45e9008a4f5600430032000120200023
:10408000090078002bfe07000000e0003e0032002f
:104090000b202000898545008b0478000a44e90044
:1040a00008457800012020000b00780021fe070061
:1040b0000000e000340032000920b0000845e900ab
:1040c00001202000090078001afe07000000e0002f
:1040d0002d003200004020008084450008c5e90022
:1040e000012020000900780012fe07000000e00017
:1040f00025003200006020008084450063455400a4
:1041000001202000090078000afe07000000e000fe
:104110001d0032000080200080844500644554006a
:10412000012020000900780002fe07000000e000e6
:104130001500320000a02000808445006545540031
:104140000120200009007800fafd07000000e000cf
:104150000d00320000c020008084450066455400f8
:104160000120200009007800f2fd07000000e000b7
:104170000500320000e020008084450067455400bf
:104180008a4f5600bdff3a000a4478006011b8001b
:10419000c0c0b30041fe07005aff370010c1b30092
:1041a0003efe07000004e0000200320018c0b30029
:1041b00054ff37000120200009007800ddfd0700d2
:1041c0000000e000f9ff32000a4478004dff37009c
:1041d000400020004f0678004f05be004f04be008f
:1041e0000000060050ff3700889fbe008a9fbe0077
:1041f0008c1f7800810578000204be000445780019
:104200000004e000c0003a000404e000be003200f8
:104210006cd7bf00310020000008a30095003a00d1
:104220006cd7bf00640660002100200091003a00b6
:10423000b0ba80000038a30099003200e14f550069
:104240009c00320066006000a5003a000801be0034
:1042500090c1b30011fe07000004e00081003a00a5
:104260008a4478000046eb000a40e9006744600099
:10427000dd010700dcfd07000000e00073003200f4
:104280000b20b0008a44e900894f56006f003200cd
:104290000804e00031003200e14f540028003200f1
:1042a000e24f540021003200e34f54001a00320064
:1042b000e44f540013003200e54f54000c0032006c
:1042c000e64f540005003200c7010700c6fd070095
:1042d0000000e0005d003200c6010700c2010700d7
:1042e000c1fd07000000e00058003200c1010700d6
:1042f000bd010700bcfd07000000e00053003200d4
:10430000bc010700b8010700b7fd07000000e0008e
:104310004e003200b7010700b3010700b2fd0700ed
:104320000000e00049003200b2010700ae010700c2
:10433000adfd07000000e00044003200ad010700c1
:10434000a9010700a8fd07000000e0003f003200bf
:10435000a8010700894f56003c003200a201070067
:10436000a1fd07000000e000380032000a20200014
:104370000b0545008a0578000944e9008844780067
:10438000c1cfb3000a00780097fd07000000e000ed
:104390002e0032000b20b0008844e9009201070093
:1043a00091fd07000000e0002800320000402000de
:1043b0008005450088c4e9008b0107008afd0700dd
:1043c0000000e00021003200006020008005450070
:1043d000e34454008401070083fd07000000e0006f
:1043e0001a0032000080200080054500e44454009b
:1043f0007d0107007cfd07000000e0001300320093
:1044000000a0200080054500e54454007601070027
:1044100075fd07000000e0000c00320000c0200025
:1044200080054500e64454006f0107006efd07005b
:104430000000e0000500320000e02000800545009b
:10444000e7445400894f5600c4ff3a0009457800fc
:10445000d1cfb3000000eb0063fd07000000e000d7
:10446000190032001dfd07008000eb000a04e00087
:1044700005003a00010078004f0678004f05be00a5
:104480004f04be0000000600100020004f06780018
:104490004f05be004f04be0000000600faff3700c3
:1044a000c918dd00c714de00898470004914dd00de
:1044b00062ff37000801be0080c1b30077fd07002e
:1044c0000004e000160032001ac0b30003fd07002c
:1044d0008000eb000a04e000e6ff3200eaff37004c
:1044e0000a81fb000300200070c9b3006bfd0700c8
:1044f0000801be0090c1b30068fd07000004e000a1
:10450000d8ff3a0056ff3700400020004f067800e1
:104510004f05be004f04be0000000600daff370062
:10452000e1cfb3000b0078002ffd07000000e00092
:10453000e5ff32000c457800e8fc07008000eb0046
:104540000a04e000cbff3200cfff37001000fa0072
:10455000889fbe008a1f780002057800480020006e
:104560000004e00010003a006cd7bf00e1046000d6
:10457000380020000c003a00eacf5000270032003b
:104580000e003e00e1cf50002a0032004400390006
:10459000e2cf5000bb003200e3cf50007400320085
:1045a00048002000cdfc0700080078004f05780087
:1045b0004f04be000080fa0000000600eccf50005f
:1045c000240032002f003900edcf50009900320056
:1045d000eecf5000f2ff3a005657ab001a003200ff
:1045e0006011b800d0c8b3002cfd07000004e00043
:1045f00015003a0000c0eb00a3fc070001042000f6
:104600000a007800cbfc07000000e0000e0032003a
:104610000004eb00b1fc0700e3ff370061752100e7
:10462000914078000149780009047800abfc07004c
:10463000ddff37006011b80090c0b30017fd070020
:104640000004e0001d00320018002000a3fc070059
:10465000d5ff37006011b800a0c0b3000ffd070000
:104660000004e000f8ff3a00010120000a00780091
:10467000b0fc07000000e000f3ff32000004eb0094
:10468000e4ff37006011b80090c0b30003fd0700dd
:104690000004e000f4ff320018002000ebff3700b8
:1046a00093fc07000000e000e7ff32008bfc0700ee
:1046b0000904780089fc0700bbff370001012000d6
:1046c000768057009bfc07000000e000deff320010
:1046d000afe897000180fb004600de00e14f50008c
:1046e0008b0032002ff097000080fb004600de00b8
:1046f0001ff197000281fb004211dd000200400023
:104700000ff19700630161004a11dd0002004000d3
:104710000000e80001002000ffe99700efc1610000
:104720004ff197000208b2004791de0082c14100bc
:104730003ff19700630161000201410082c1410025
:1047400083c1e8008381fb00e98151008301e90016
:10475000030033000000400081804800fbff370069
:10476000008dbe00090478005cfc07008eff370056
:10477000b0ba800064046000470032006011b800e5
:10478000d0c8b300c5fc07000004e000aeff3a004b
:1047900000c0eb003cfc07000101200076805700c0
:1047a00064fc070008c3b3000000e000a6ff32006d
:1047b00000c0eb0034fc07000844e90000c0eb0037
:1047c00031fc070000c0eb002ffc070000c0eb002d
:1047d0002dfc070000c0eb002bfc070000c0eb0025
:1047e00029fc070000c0eb0027fc070000c0eb001d
:1047f00025fc070067445400edff3a004ff1970095
:104800000281fb004411de000001200001002000b5
:104810000201e900030033000000400081804800ed
:10482000fbff3700008dbe000004eb002bfc0700ef
:104830005dff37006011b800a0c3b30097fc07000c
:104840000004e00080ff3a0000c0eb000efc07000f
:10485000004d780000c0eb000bfc070010459800ed
:1048600000c0eb0008fc07002045980000c0eb00ea
:1048700005fc0700304598000904780017fc070084
:1048800049ff370000202000000978000904780063
:1048900012fc070044ff37006011b80090c0b3005d
:1048a0007efc07000004e00067ff3a0001012000e1
:1048b000768057001ffc07000000e00062ff320016
:1048c000b0ba8000620260002a0032004ff0970008
:1048d000f003b200000040005ff197000208b20050
:1048e0004711de00020040000000e8007ff1970061
:1048f0000281fb004611de000201e9000200dd003a
:1049000001002000008dbe00f4fb070026ff3700e9
:104910003ff197000281fb002ff097004800dd0077
:10492000000141001ff297000482fb0005002000f7
:1049300004007800f003b20001002000c000dd0098
:104940000000200002014000e081480061014100b8
:10495000e08149004a18dd00c611de0083017000c5
:104960004a11dd00028dbe0005047800dbfb070064
:104970000dff37005ff097000080fb004ff19700bc
:10498000c207b2004291de000201e800e3006000cd
:10499000c308dd004500de00808040008100e800a3
:1049a0000191b900028dbe0004047800cbfb070022
:1049b000fdfe3700d0ba80000000e00002003200a7
:1049c0000000e900d0ba8800c0ba80000000e00012
:1049d000020032000000e900c0ba880090cfb300a6
:1049e0006c77b60000000600c1cfb3000b00780062
:1049f000000006000b20b0008944e900000006001a
:104a000000027800f0072000800f520036003600c8
:104a10000100e0000a0032008000eb00f00f2000ef
:104a2000800f520004003e000400420061ec2e00a2
:104a3000010040008000970001007800000006009f
:104a400060ec2e0005082000900f5200210032007b
:104a50008101e800830078000081e800920f520095
:104a60001c0032008300e8000280e800900f520032
:104a7000180032008380e80064004100900f52006b
:104a800014003200e380410066004100900f5200a4
:104a900010003200e480410068004100900f520095
:104aa0000c003200e58041006a004100900f520086
:104ab00008003200e68041006c004100900f520077
:104ac00004003200e78041006e004100858f5000f5
:104ad000ddff3a000108b000f10fb20001007800dc
:104ae00000000600d6ff3700040078000000060032
:104af000d3ff37008001780010062000808f51001e
:104b00000d0032008000eb00821a2f008100e800c7
:104b1000120078000000e000090032000281e80085
:104b2000830f5000f9ff3a008180400060fc2e00a6
:104b300061007800000006008000eb00faff3700fb
:104b40000300780000000600010278008200e900fe
:104b5000e18f400032003200800178000100400007
:104b60000001e8000300500067006000b4597800bd
:104b7000828f51002a0032000000e0001500320050
:104b8000e10f500010003200e20f50000d00320023
:104b9000e30f50000a003200e40f5000070032001b
:104ba000e50f500004003200e60f50000100320013
:104bb000b4597800b4597800b4597800b4597800e1
:104bc000b4597800b4597800b4597800828f5100f4
:104bd00013003200b4597800830078000400780094
:104be000b459780094497800a0419000a3409800ff
:104bf000b0419000b3409800c0419000c34098007d
:104c0000d0419000d3409800e0419000e3409800ec
:104c1000e781400067024000828f5100edff3a00bb
:104c2000000006000201e900e10f41002c00320003
:104c30000142780080017800020040000001e80095
:104c4000030050006700600081597800828f510096
:104c5000230032000000e00015003200e10f500098
:104c600010003200e20f50000d003200e30f500040
:104c70000a003200e40f500007003200e50f500038
:104c800004003200e60f5000010032008159780024
:104c900081597800845978008459780084597800c3
:104ca0008459780084597800828f51000c003200ba
:104cb000845978000300780084597800844978008a
:104cc0002440980034409800444098005440980094
:104cd00064409800e7014000828f5100f4ff3a00e1
:104ce0000000060000017800904178000000eb0011
:104cf0000304e000090032000300fb00808f500035
:104d000006003200524078000004e0000400320047
:104d10000000fb00808f5000faff3a000000060000
:104d200000000500889fbe008a9fbe008c9fbe00c9
:104d300000057800404090000004e00006003a00c2
:104d40008000eb00010078004f06be004f05be005a
:104d50004f04be00000006001a1c9000aa1c900020
:104d60006d0320008a8646001a40900014c0b300ec
:104d70000801be008d0078001bfd07001100200017
:104d80000000e000efff3a00404598003a10900024
:104d9000ca109000800f5400818f5c00e8ff39003a
:104da0007a0990008a11900000004100818049003a
:104db000800f5400818f5c00e1ff31003a40900089
:104dc0000086fb00e10f5600ddff36000c80e90095
:104dd000e70560005400320008044100898449005e
:104de0001a40900014c0b3000801be008d00780086
:104df000fdfc07000c06e900e10f5600d0ff36006d
:104e00007a0990008a119000e18f55004600320027
:104e1000e28f55003a003200e38f55002e00320039
:104e2000e48f550022003200e58f55001600320055
:104e3000e68f55000a0032000804410089844900c9
:104e40001a40900014c0b3000801be008d00780025
:104e5000e5fc07000c06e9007a0990008a11900031
:104e600008044100898449001a40900014c0b3002e
:104e70000801be008d007800dbfc07000c06e9008d
:104e80007a0990008a119000080441008984490041
:104e90001a40900014c0b3000801be008d007800d5
:104ea000d1fc07000c06e9007a0990008a119000f5
:104eb00008044100898449001a40900014c0b300de
:104ec0000801be008d007800c7fc07000c06e90051
:104ed0007a0990008a1190000804410089844900f1
:104ee0001a40900014c0b3000801be008d00780085
:104ef000bdfc07000c06e9007a0990008a119000b9
:104f000008044100898449001a40900014c0b3008d
:104f10000801be008d007800b3fc07000c06e90014
:104f20007a0990008a1190000804410089844900a0
:104f30001a40900014c0b3000801be008d00780034
:104f4000a9fc07008c05e900e18f55007cff3600c5
:104f50007a0990008a119000080441008984490070
:104f60001a40900014c0b3000801be008d00780004
:104f70009dfc07007a0990008a1190000804410006
:104f8000898449001a40900014c0b3000801be0093
:104f90008d00780094fc07007a0990008a11900037
:104fa00008044100898449001a40900014c0b300ed
:104fb0000801be008d0078008bfc07007a09900084
:104fc0008a11900008044100898449001a40900029
:104fd00014c0b3000801be008d00780082fc0700f9
:104fe0007a0990008a1190000804410089844900e0
:104ff0001a40900014c0b3000801be008d00780074
:1050000079fc07007a0990008a1190000804410099
:10501000898449001a40900014c0b3000801be0002
:105020008d00780070fc07007a0990008a119000ca
:1050300008044100898449001a40900014c0b3005c
:105040000801be008d00780067fc070067865500e8
:105050007a0990008a119000b3ff3700889fbe0044
:105060008a1f7800000578000204be00a018900096
:10507000101890000001eb00880f5000898f580035
:10508000050032000a00780026ff07000000e0005b
:105090000500320012002000020078004f05780061
:1050a0004f04be0000000600610320008a8040001b
:1050b0001a40900014c0b3000801be007cfb07003a
:1050c0000000e000f3ff3a00181d9800291d980029
:1050d000000078004f0578004f04be000000060075
:1050e000f1ff3700889fbe008a1f78008004780097
:1050f0000cff0700000578000000e0000a003a00fd
:1051000030c0b300994f10001000320019409000d9
:105110000001eb008040eb000cfd07001a002000ae
:105120000000e000040032000a0078004f0578001b
:105130004f04be0000000600000078004f05780014
:105140004f04be0000000600fbff370059409000ee
:105150000004e000edff32006000b800901c9800f1
:10516000a11c9800680320000904440002202000cc
:105170008a00780008007800aafe070050c5b30036
:1051800060fc9b00a0cab30070fc9b0020c5b3006c
:10519000004c7800f074980012c6b300827c98002e
:1051a00011c4b300917c980020c7b30040e49b0079
:1051b00050e49b0061e49b0072e49b00694890000e
:1051c00000ec9b007948900010ec9b000950900087
:1051d00020ec9b001950900030ec9b002948900077
:1051e00040ec9b003948900050ec9b0049489000ef
:1051f00060ec9b005948900070ec9b0019099000ee
:10520000a90990001940900014c0b30088007800ec
:10521000f5fb0700da449800194090000001eb000c
:105220008040eb00c9fc07001a0020000000e000ed
:10523000bdff3a00c0ff3700000378006202510052
:10524000e0825900e0089000500890006200500091
:10525000e08058006011b800800f5200818f5a0022
:1052600009003100264090006d1f07000021b800a2
:105270000580b900830140007610900086189000e8
:1052800002014000838148000200be0000000600c9
:10529000889fbe008a9fbe00000578000204be0001
:1052a000611f070082003600071f070080003100e1
:1052b0001a407800e24f500009003200e34f5000de
:1052c00022003200e14f50004e0032000080eb001f
:1052d0008080eb004f05be004f04be0000000600ba
:1052e0004818dd004811de0002017000c819de0018
:1052f0003a109000ca1090000201400083814800db
:105300000a00780055ff07000000e000efff3a00b8
:10531000620320000a0141000800440089804c001b
:10532000f01fb20000014100124090004800dd0073
:105330009280fb0001007000010020004f05be00bc
:105340004f04be0000000600e5ff37004918dd00ed
:105350004711de0002017000c719de003a1090000c
:10536000ca10900002014000838148000a007800c2
:105370003aff07000000e000d4ff3a006403200079
:105380000a0242004248dd00ce40de00810070008b
:105390004240dd00f01fb2000002420034419000a4
:1053a000c811dd0002002000244090008080fb0036
:1053b0000000200000017100818171001440900004
:1053c0004800dd00010020000001710081817100b2
:1053d000144078000080fb000100200000017100f3
:1053e00081817100f0ff20000300600080007800e0
:1053f000020078004f05be004f04be00000006000a
:10540000b7ff3700820478000200d1000004410099
:105410004941de003a109000ca109000020140009d
:10542000e08148000a0078000cff07000000e0005f
:10543000a6ff3a0008007800f01fb2006003b00039
:105440000a0040009085fb000804e8004941de00a6
:105450003a109000ca10900002014000e08148001c
:105460000a007800fdfe07000000e00097ff3a0008
:10547000f81fb20060032000080040000a0040004e
:105480001080fb004800dd00808075000908a30043
:105490000d003a00f0ff20000080600001002000b5
:1054a0004f05be004f04be00000006008cff370011
:1054b00010002000010020004f05be004f04be0078
:1054c0000000060086ff37004408de0001002000cf
:1054d0004f05be004f04be000000060080ff3700ed
:1054e000e4874700889fbe008a9fbe008c9fbe0055
:1054f0008e1f7800000578000204be000406be007e
:10550000c91e0700130036006f1e0700110031008e
:105510001a407800e24f500016003200e34f50006e
:10552000630032002b002000e14f50002a003200bf
:1055300010c0b300404598000b0078004f0778007a
:105540004f06be004f05be004f04be004f00b10025
:1055500000000600200020004f0778004f06be0024
:105560004f05be004f04be004f00b1000000060012
:10557000f8ff37004818dd004811de000201700016
:10558000c819de003a109000ca10900002014000d5
:10559000838148000a007800b0fe0700800578008b
:1055a0000000e000e2ff3a00600320000a00400033
:1055b0000801440089814c00f21fb2000200400043
:1055c0000c487800c860de001140980010c0b3009d
:1055d00040459800d8ff37000200d1008004410008
:1055e0004949de003a109000ca10900002014000c4
:1055f000e08148000a00780098fe070080057800e6
:105600000000e000caff3a006e0320000a074700ce
:1056100009007800f01fb20000014700610064003b
:105620000100200080bf9f000000e0005c0032000d
:1056300012427800ef4062004460dd0001407000db
:10564000004978000904e80010c0b3004045980004
:105650004941de003a109000ca109000020140005b
:10566000e08148000a0078007cfe07008005780091
:105670000000e000aeff3a00f81fb20088014700ca
:105680000fb897000000e000470032004c69dd00d1
:105690004460de0000007100c468de0080497800cc
:1056a0008005eb0010c0b30040459800a2ff370012
:1056b000491add004711de0002017200c719de0041
:1056c0003a109000ca109000020140008381480007
:1056d0000a00780061fe0700800578000000e00005
:1056e00093ff3a00640320000a0242004248dd00b2
:1056f000ce40de00810070004240dd00f01fb200ad
:1057000000024200e30342000483e8008402e80050
:1057100017417800c811dd00020020001640780013
:105720008080fb0000002000000171008181710079
:105730001580fb004800dd00010020000001710021
:1057400081817100144078000080fb00010020007e
:10575000000171008181710000002f0003006000d2
:1057600001002000c000dd00000020000c007000df
:105770008d807000004a78004801de00824a78007f
:105780004009de0003002000024b78004808de00dc
:10579000804b780010c0b3004045980066ff37008a
:1057a0000c407800a6ff370002cfb3001341610020
:1057b000486add004860de0000007200c868de0054
:1057c0006f40600000407100804978008005eb0068
:1057d000b4ff3700889fbe008a9fbe008c1f7800f0
:1057e000000678000205be000f1e070027003600e5
:1057f000b51d0700250031000a01be000c0078002d
:10580000a3fe07000004be000a1e07001a003200b3
:105810000b1e07001d0032000c1e07002100320085
:105820006022b8000a01be000c0078002cff0700bf
:105830000000e00011003a007c0090008c0890000d
:10584000021e07000600320061004000e0804800b0
:1058500070069800010e980010c0b30050469800e2
:105860000805be005c089000ec089000800f540012
:10587000818f5c00e0ff39000000eb004f067800ec
:105880004f05be004f04be000000060020002000af
:105890004f0678004f05be004f04be000000060012
:1058a000faff3700100020004f0678004f05be00b9
:1058b0004f04be0000000600f4ff37000400fa00a9
:1058c000889fbe008a9fbe008c1f7800000678006b
:1058d00092bf9f00a3bf9f00df1d070031003a0069
:1058e00050059000e0059000e00f5500e08f5d004e
:1058f0001e003a0050099000e00990001a002000b4
:105900000b0020000a04be0061044400e0844c0047
:10591000820f5400838f5c0005003900e10f5500b1
:10592000e08f5d00190036002800200009002000eb
:105930000801be000c00780055fe0700bd1d0700e1
:1059400027003200c11d070011003200bc1d0700f6
:105950000f003200880f5500898f5d000b00320068
:105960005c099000ec099000e7ff370050099000b7
:10597000e0099000820f5500838f5d00e1ff390040
:105980001a0020000b002000deff37006000b80086
:105990004f0678004f05be004f04be000080fa009d
:1059a000000006001fb99700afb9970038fe070046
:1059b000e10f5000e08f5800350036005c09900080
:1059c000ec099000820f5000838f5800f0ff3900df
:1059d0001fbd9700afbd97000a04be00caff370085
:1059e000f4ff2f00f5ff20000801be000c00780036
:1059f000bbfe0700000178000000e00020003a0034
:105a00001fb89700afb89700e00f5000e08f580024
:105a100014003a0058069800690698007c0090002f
:105a20008c089000e10f4000e08f48000600320033
:105a300061005000e080580070069800010e980048
:105a400010c0b300504698000800be004f06780012
:105a50004f05be004f04be000080fa0000000600a3
:105a6000d0ff37000802be000001be000c00780025
:105a70009bfe0700000178000000e000e5ff320017
:105a80000080eb008080eb00e10f5100c0ff32008e
:105a900010002000010020004f0678004f05be00d6
:105aa0004f04be000080fa0000000600bdff370072
:105ab000889fbe008a1f78000004be002104980061
:105ac00030019000c0019000571d070044003200d3
:105ad0001002780054089000e4089000fc1c0700b5
:105ae0003f0031005c1d070025003200244090007b
:105af0000080fb004405dd008a8f54000d00390052
:105b000018007800e2fd07000001be004f1d0700ed
:105b1000430032004a1d07003100360018007800ab
:105b2000e91c07002e0031008a845400890f5500bb
:105b3000f3ff3600520498006304980018007800c0
:105b4000bdfd07004449de0002014000e08148003d
:105b500072049800030c9800600320009800400035
:105b60006f8064004500dd0080804000110c9800cb
:105b70000000eb004f0578004f04be000000060057
:105b800030c0b300944f10001a0032006000b8001b
:105b9000500498006104980044009000808f5400e5
:105ba0000f0031004448de0054119000e4119000d1
:105bb00000004100e080490070049800010c98004a
:105bc00060032000980040006f8064004500dd0005
:105bd00080804000110c98000000eb00e5ff3700ca
:105be000200020004f0578004f04be000000060092
:105bf000e3ff370054119000e4119000e00f5100d2
:105c0000e08f5900e1ff3200244090000080fb004b
:105c10004405dd008a8f5400c6ff3900b8ff370005
:105c2000100020004f0578004f04be000000060061
:105c3000d3ff3700889fbe008a9fbe008c9fbe00a6
:105c40008e1f780080047800010478002000900006
:105c50000005e8001e0032007900900089089000dd
:105c6000f41c07001a003200ef0565000c003a0032
:105c700061004000e0804800f0049800810c98002a
:105c800059019000e9019000f31c070017003a0049
:105c90001900780040009000800f55000c00310082
:105ca000aa0498006103200019804000c558dd0057
:105cb00001004000900c98000000eb004f077800b6
:105cc0004f06be004f05be004f04be000000060098
