:020000040000fa
:08000000b07c040000000000c8
:020000040000fa
:1002000066720400000000008000780001003700e2
:100210000000e8001004e000fdff3a00010050007b
:10022000000006008001780000017800314078006d
:10023000005978000004e000fcff3a000300780059
:1002400000000600040037000204e0000a0032004b
:100250000000e8008100e80010417800914f510053
:10026000f9ff32000081eb0010407800914f500000
:1002700004003900020037000001eb0001003700e4
:100280001200200002007800000006006022b80082
:10029000060220000000d0008180d2000482d2003b
:1002a0008582d2000000a0000202520083825a0020
:1002b000030031000202420083824a000000a100d4
:1002c0000603e900f3ff3a0000000600efff070015
:1002d0000400be0000000600889fbe008a9fbe008a
:1002e0004400f800080f2000280288003400f800bd
:1002f000811f78002305900008f02f000a40e100dc
:1003000004003200280280004800b3002802880060
:10031000aa0188008304900043029000d305900056
:100320000000e900008008000e00000013049000a7
:1003300033059000320378004718c1000980080097
:10034000060000005e1cc4005210c500071d7800a6
:100350009a07cd005310c4004618c5004618c400c3
:100360000b00c800b107cd004f0078003400f90041
:100370004400f9004f05be004f04be000000060017
:100380008000900030009000018008000100000013
:100390000018eb000018eb00000006004400f80015
:1003a000889fbe008d1f7800040f20002402880063
:1003b00000047800e604400081067800f301200084
:1003c00038027800b90278000380080003000000ba
:1003d0005320c00051b2c7005380c6005112c7005d
:1003e000cf0678004f04be004400f900000006006c
:1003f0006000b800f3063700d0872200010020001b
:10040000f0063700f0d7200001002000ed0637008d
:100410006000b800eb0637006000b800e90637005e
:10042000d7c2a900d7e2a800c6e2a900c702a90066
:10043000c722a900c742a9008001fb004f19de00b6
:100440004711dd00a12c2000914078000174a1002b
:1004500049000700cae2b7008000fd0003017800f0
:100460000204b2004611de00460007000104a100ac
:100470004100070046000700030178000202b200b5
:100480004511de00024141003e0007000114a100b9
:10049000390007003e000700708161004411de0052
:1004a0004211dd00370007000124a10032000700df
:1004b00037000700c762a900c782a900c7a2a90028
:1004c000c7c2a900688161004311de004311dd004d
:1004d0002c0007000134a100270007002c000700b2
:1004e000648161004211de004411dd002500070037
:1004f0000144a1002000070025000700e2816100ff
:100500008301d100c519dd001e0007000154a100c0
:1005100083c070008000fd001d0007006140600086
:100520004600dd00170007000164a10080c07000d4
:100530008000fd0016000700cbe2a800acff07001a
:10054000cbe2a900c6e2a800c702a800c722a80003
:10055000c742a800c762a800c782a800c7a2a80017
:10056000c7c2a800d7e2a9007a0107000004e00092
:10057000fdff3a000000060082c070008000fd0010
:1005800000000600b12c2000914078000000060019
:10059000cbe2b7008000fd0000000600d7c2a90032
:1005a000d7e2a900c6e2a900c702a900c722a90094
:1005b000c742a9008001fb004f19de004711dd0092
:1005c000a12c2000914078000174a1004000070098
:1005d000cae2b7008000fd00030178000204b20007
:1005e0004611de003d0007000104a10038000700ad
:1005f0003d000700030178000202b2004511de0051
:1006000002414100350007000114a100300007003d
:1006100035000700708161004411de004211dd00e9
:100620002e0007000124a100290007002e0007006a
:10063000c762a900c782a900c7a2a900c7c2a900b2
:10064000688161004311de004311dd0023000700d3
:100650000134a1001e00070023000700648161002f
:100660004211de004411dd001c0007000144a1001e
:10067000170007001c000700e28161008301d10020
:10068000c519dd00150007000154a10083c07000ea
:100690008000fd0014000700614060004600dd009e
:1006a0000e0007000164a10080c070008000fd0002
:1006b0000d000700cbe2a8004dff0700cbe2a90028
:1006c000240107000004e000fdff3a0000000600de
:1006d00082c070008000fd0000000600b12c2000e8
:1006e0009140780000000600cbe2b7008000fd00da
:1006f00000000600d7c2a900d7e2a900c6e2a900ff
:10070000c702a900c722a900c742a900cae2a800df
:100710008001fb00030178000204b2004611de00f4
:100720003f0007000104a10040000700420007004d
:10073000030178000202b2004511de0002414100cf
:10074000370007000114a100380007003a00070035
:10075000708161004411de004211dd0030000700ad
:100760000124a1003100070033000700c762a9007f
:10077000c782a900c7a2a900c7c2a90068816100f9
:100780004311de004311dd00250007000134a10004
:100790002600070028000700648161004211de0086
:1007a0004411dd001e0007000144a1001f000700e6
:1007b00021000700e28161008301d100c519dd003d
:1007c000170007000154a10083c070008000fd00e5
:1007d00019000700614060004600dd0010000700be
:1007e0000164a10080c070008000fd0012000700bd
:1007f000cbe2a800fefe0700cbe2a900c6e2a800fb
:10080000c702a800c722a800c742a800c762a80064
:10081000c782a800c7a2a800c7c2a800fefe370072
:10082000b12c2000914078000000060082c07000ca
:100830008000fd0000000600cbe2b7008000fd0054
:1008400000000600d7c2a900d7e2a900c6e2a900ad
:10085000c702a900c722a900c742a900cae2a9008d
:10086000cb02a8008001fb00030178000202b20065
:100870004511de0002414100390007000114a100ca
:1008800032000700708161004411de004211dd007a
:10089000330007000124a1002c000700c762a90053
:1008a000c782a900c7a2a900c7c2a90068816100c8
:1008b0004311de004311dd00290007000134a100cf
:1008c00022000700648161004211de004411dd0056
:1008d000230007000144a1001c000700e281610021
:1008e0008301d100c519dd001d0007000154a100de
:1008f00083c0700016000700614060004600dd0004
:10090000170007000164a10080c0700010000700fc
:10091000cbe2a800b6fe0700cbe2a900c6e2a80021
:10092000c702a800c722a800c742a800c762a80043
:10093000c782a800c7a2a800c7c2a80085000700f8
:100940000004e000fdff3a000000060082c07000d5
:100950008000fd00cbe2b7008000fd000000060033
:10096000b12c200091407800000006000800fa0039
:10097000c6e2a800c702a800c722a800c742a80074
:10098000c762a800c782a800c7a2a800c7c2a80063
:10099000d7c2a800d7e2a80095fe0700cbe2a800c6
:1009a00093fe0700872c2000974378000708b200c9
:1009b000962c20001643780061036300952c2000dc
:1009c00095427800c42add00932c200093417800e2
:1009d000c219dd00942c200014427800922c2000d3
:1009e000124178004211de00912c200091407800e5
:1009f000c408de00c9c2bf004600de00610060001e
:100a0000cbe2a900e2c060000140700064416100d7
:100a1000024070006842620004407000f0c1610052
:100a2000034070000542b200054070004633dd000f
:100a300006407000074070000000fb000080fa00d4
:100a4000000006000800fa00c6e2a800c702a800dd
:100a5000c722a800c742a800c762a800c782a80092
:100a6000c7a2a800c7c2a800d7c2a800d7e2a900a1
:100a70005ffe0700cbe2a8005dfe0700962c200079
:100a80001643780061036300952c2000954278009e
:100a9000c42add00932c200093417800c219dd00a8
:100aa000942c200014427800922c200012417800ef
:100ab0004211de00912c200091407800c408de0035
:100ac000c9c2bf004600de0061006000cbe2a900a1
:100ad000e2c06000014070006441610002407000ab
:100ae0006842620004407000f0c161000340700081
:100af0000542b200054070004633dd00064070003c
:100b0000fff89700014070000000fb000080fa0031
:100b100000000600881f780000047800104078006c
:100b20000004e00002003a004f04780000000600d4
:100b30003bfe0700584078000004e000faff320056
:100b400037fe0700584078000004e000f8ff3a0044
:100b5000f5ff3700c6e2a800c702a800c722a80018
:100b6000c742a800c762a800c782a800c7a2a80001
:100b7000c7c2a800d7c2a800d7e2a9001cfe070080
:100b8000cbe2a8001afe0700c842e20003003d00c5
:100b9000cbe2a9001efe070010000500cbe2a90071
:100ba0001bfe070000000500881f78000044780045
:100bb00011fe0700cae2a900cb02a900cb22a900be
:100bc000cb42a900cb62a900cb82a900cba2a9008d
:100bd000cbc2a900cac2a900d7c2a900d7e2a90006
:100be000cbe2a900c6e2a900c702a900c722a9005a
:100bf000c742a900c762a900c782a900c7a2a9006d
:100c0000c7c2a900c6c2a900d3c2a900d3e2a900e5
:100c1000c7e2a9000840780060fe0700e0c0b3000a
:100c20005efe070010c0b3005cfe070060c0b300aa
:100c30005afe07004f047800000006008400a90057
:100c4000e7416000410920009140780082cfb30065
:100c500082c0600083c070008000fd0094e0b70097
:100c60008000fd00700160004411de0021082000ba
:100c700091407800e3cfb30083c0600082c0700071
:100c80008000fd0082e0b7008000fd006800600089
:100c90004300de00c10820009140780083c060005e
:100ca00080c07000010078008ce0b70000000600f2
:100cb0000000eb00c0b488009af6b7000000060000
:100cc0000002be00a3b480008000eb00b0b480003e
:100cd000808f51000e003d00688041004169210075
:100ce00060c1780069804100010040001000fb00f5
:100cf000000a78000380e800a0b48800c1692100e0
:100d0000810a400014004000a0b488008280fb00eb
:100d10000100780000000600889fbe000100e0008e
:100d200003003c000000eb004f04be000000060082
:100d3000800178008002eb0056c5b3001700200048
:100d4000380020000100e90087046000c2b4800080
:100d5000e20f5100570032004f003600e30f510000
:100d600035013200e40f5100420132008502e800f3
:100d70008301e800858f5000eaff32000900e0009f
:100d80000c003200c2b48000e20f5100e1003200da
:100d9000c7003600e30f510058013200e40f510044
:100da000450132008502e8008301e800858f50008c
:100db000dcff3200c2b48000e20f510019003200a3
:100dc000e20f510064003e000200e0007f003200ac
:100dd000e10f5100540032008502e8008304e8006e
:100de00089017800c2b48000e20f51001c0032007b
:100df000e20f51006a003600e30f51009900320003
:100e0000e40f5100350032008502e8008901e80056
:100e1000858f5000c3ff3200c2b48000e20f510042
:100e2000e7ff3a0002c8b300934f1100b40032004c
:100e3000a2b480000201e800a2b48800e30f5100d0
:100e4000e5ff34009836ef008502e8008304e800ef
:100e500089017800c2b48000e20f5100e4ff3a003b
:100e600002c8b300994f11009c003200a2b4800068
:100e70000201e800a2b48800e30f5100e2ff340051
:100e80009836ef008502e8008901e800858f500060
:100e9000e1ff3a00a3ff37000200e000ab003a0098
:100ea000934f1300b1ff3a00c7b48800a7b488007d
:100eb000aeff370002c8b300934f11002201320089
:100ec000a2b480000201e800a2b48800e30f510040
:100ed000a6ff34009836ef00a4ff3700a4b48000ca
:100ee000b2b48000820f5200c50035009836ef0082
:100ef000b2692100124178000282fb001381fb00dd
:100f000002014200f20fb200bfff3a000700780072
:100f10009af6b700a2b48800100020004f04be006b
:100f20000000060082ff3700934f13001a013200c1
:100f3000a2b48000fa0f5100c2ff34009436ef00d3
:100f400002c8b300934f11002d013200220020008f
:100f5000c2b48800a0ff3700e30f51003200320016
:100f6000e40f51009cff3a00a4b48000b2b48000aa
:100f7000820f520095003d00c26921001372790072
:100f80000401e800a2b48800b2692100124178008f
:100f900013414100020078009bf6b7008eff370036
:100fa0000200e0000e003a00934f130096ff3a0053
:100fb000c7b48800a7b488008502e8008901e8006a
:100fc000858f500094ff3a0056ff3700934f13006f
:100fd00081ff3a00c7b48800a7b488007eff3700bd
:100fe000e10f510088ff3a00934f1300e4003200f4
:100ff000a2b48000fa0f5100a1ff34009436ef0034
:1010000002c8b300934f11000101320022002000fa
:10101000c2b488008502e8008901e800858f50008d
:101020007dff3a003fff37001341780004c8b3004a
:10103000844f510068ff320082ff3e000281fb00b6
:10104000b2b48800b2692100124178001341410016
:10105000020078009bf6b70042002000c2b488006e
:101060005dff37001341780004c8b300844f51007e
:1010700065ff320082ff3e000281fb00b2b48800af
:10108000b26921001241780013414100020078004a
:101090009bf6b70042002000c2b488008502e80039
:1010a0008901e800858f50005bff3a001dff370083
:1010b0000200e00033003a00934f130039ff3a007a
:1010c000c7b48800a7b488008502e8008301e8005f
:1010d000858f500037ff3a0012ff37009436ef003b
:1010e000134078009bf6b700c8b488008502e8007a
:1010f0008901e800858f500047ff3a0009ff37005b
:101100009436ef00134078009bf6b700c8b488000f
:1011100031ff370002c8b300934f11008f00320037
:10112000a2b480000201e800a2b48800e30f5100dd
:101130001cff34009836ef008502e8008301e800c8
:10114000858f50001bff3a00f6fe3700e10f51007b
:1011500006ff3a00934f1300b5003200a2b480009e
:10116000fa0f51005bff34009436ef0002c8b30061
:10117000934f1100b600320022002000c2b4880054
:10118000fafe3700e10f510006ff3a00934f1300bb
:10119000a9003200a2b48000fa0f5100e5ff34002c
:1011a0009436ef0002c8b300934f1100ac00320038
:1011b00022002000c2b488008502e8008301e80014
:1011c000858f5000fbfe3a00d6fe37009836ef00c0
:1011d000b2692100124178000282fb001381fb00fa
:1011e00002014200f20fb200fbfe3a000700780055
:1011f0009af6b700a2b488001000200047ff37001d
:10120000c2692100137279000401e800a2b48800c9
:10121000b2692100124178001341410002007800b8
:101220009bf6b7008502e8008901e800858f500031
:10123000f9fe3a00bbfe37001341780004c8b30042
:10124000844f5100c9fe320022ff3e000281fb00a4
:10125000b2b48800b2692100124178001341410004
:10126000020078009bf6b70042002000c2b488005c
:10127000befe3700a4b48000b2b48000820f5200da
:10128000470035009836ef00b2692100124178001e
:101290000282fb001381fb0002014200f20fb20048
:1012a000b2fe3a00070078009af6b700a2b48800b0
:1012b0001000200019ff3700a4b48000b2b48000f1
:1012c000820f5200400035009836ef00b2692100cd
:1012d000124178000282fb001381fb0002014200f0
:1012e000f20fb20009ff32008502e8008301e80036
:1012f000858f5000affe3a008afe37001341780018
:1013000004c8b300844f5100a6fe320089ff3e009e
:101310000281fb00b2b48800b2692100124178005a
:1013200013414100020078009bf6b7004200200004
:10133000c2b488008502e8008301e800858f500070
:101340009cfe3a0077fe37009436ef001340780099
:101350009bf6b700c8b4880084fe37009436ef00cf
:10136000134078009bf6b700c8b488008502e800f7
:101370008301e800858f50008efe3a0069fe370039
:101380009436ec008502e8008901e800858f500062
:10139000a1fe3a0063fe37009436ec008efe370063
:1013a000c2692100137279000401e800a2b4880028
:1013b000b269210012417800134141000200780017
:1013c0009bf6b70069fe3700c269210013727900ed
:1013d0000401e800a2b48800b2692100124178003b
:1013e00013414100020078009bf6b7008502e80037
:1013f0008301e800858f50006efe3a0049fe3700f9
:10140000020078009bf6b700c8b4880072fe37006f
:10141000020078009bf6b700c8b488008502e80097
:101420008901e800858f50007bfe3a003dfe3700c1
:101430009436ec004dfe37009436ec008502e8004f
:101440008301e800858f50005afe3a0035fe3700d0
:10145000020078009bf6b700c8b4880043fe37004e
:10146000020078009bf6b700c8b488008502e80047
:101470008301e800858f50004efe3a0029fe3700b8
:10148000d082a900cc82a900c0fe2f00ebfd37005e
:1014900068d7bf006877ef000000fb00000006007f
:1014a0003600f800809fbe00829fbe00849fbe0071
:1014b000869fbe003400f80000c0b300a001880081
:1014c00010c0b30068f7b70010002000d433070045
:1014d0008400a9003400f9004f03be004f02be0093
:1014e0004f01be004f00be003600f900004006006c
:1014f000f8874700889fbe008a9fbe008c9fbe0071
:101500008e1f780000fe2f000f074000a0a72f00bd
:1015100010000900305f78001e01b1001001b10019
:1015200000c2b30021f4b70022f4b70023f4b700df
:1015300024f4b70025f4b70026f4b70027f4b70069
:1015400028f4b70029f4b7002af4b7002bf4b70049
:101550002cf4b7002df4b7002ef4b7002ff4b70029
:1015600030f4b7003174ef008044eb008946780016
:10157000e1fd2f000f8640008c007800c0fd2f0099
:101580000f004000cefd07000004e0000d00320017
:10159000e34f50001f003e00e24f50002400310096
:1015a000e14f500016003200804478008c00780033
:1015b000c0fd2f000f004000c1fd07000004e00047
:1015c000f3ff3a000904e0000400320020a42f00d9
:1015d00090407800e1ef9f00f1ef9f00c851e200da
:1015e0006a003a000d00fb004f0778004f06be006e
:1015f0004f05be004f04be008f01b1000000060081
:101600006fa89700e80f50008400320019c0b300a3
:10161000d9ff3700e44f5000e3ff3a006fa897006e
:10162000e10f50006b00320049c0b300d2ff370019
:10163000efa89700f48f5000dbff3c000001eb00a7
:101640000100e00049003400ffa997001340780032
:1016500021f4b700e18f50005c003200134090008d
:1016600022f4b70022002000828f50003f00340097
:101670002340900023f4b700e38f50005300320062
:101680003340900024f4b70042002000828f5000c5
:10169000360034004340900025f4b700e58f500039
:1016a0004a0032005340900026f4b7006200200048
:1016b000828f50002d0034006340900027f4b70063
:1016c000e78f5000410032007340900028f4b700cb
:1016d00082002000828f50002400340003489000d4
:1016e00029f4b700e98f5000380032001348900009
:1016f0002af4b700a2002000828f50001b003400a3
:10170000234890002bf4b700eb8f50002f003200dd
:10171000334890002cf4b700c2002000828f5000a4
:1017200012003400434890002df4b700ed8f5000b4
:1017300026003200534890002ef4b700e20020004b
:10174000828f500009003400634890002ff4b700e6
:10175000ef8f50001d0032007348900030f4b70046
:1017600002012000828f50005e00320010422100f2
:101770008040eb0001717800383107000004e00080
:101780007dff32001dc0b3007bff370010422100f7
:10179000801f78008e1f7800f1a62f00811f78002f
:1017a000a01c2100832c0700e68757000d00fb00da
:1017b0004f0778004f06be004f05be004f04be0025
:1017c0008f01b100000006008dff37000101780095
:1017d000e6ff37000d3307000004e000010032008f
:1017e0002dc0b3007fa8970090407800f0c4b300ec
:1017f00080cf5000350032000040e80080cf50001c
:101800003a00320070a62f001142210007000900a3
:10181000b05878008000b10057ff37007fa99700cb
:101820008283e800174f78006304410098407800f5
:1018300091e79f000202780034407800b0e79f00f3
:101840009440780041479800e40241001540780038
:10185000f0e79f00650341009640780081ef9f000c
:101860006600410090407800a1ef9f00e701410031
:1018700093407800b1ef9f001000fb006a00b900b0
:10188000134040009500fb006a0db90096404500ea
:1018900070c550009700fb006a0bb90098404300e8
:1018a000f0c050001201fb006a11b9001441410060
:1018b000f04251000042eb00f04150000a41780034
:1018c000054078005b3007002bff370030a52f0064
:1018d000114221000b000900b0587800c000b1008f
:1018e00025ff370002012000a0ff3700f0a52f00e0
:1018f0001142210007000900b05878008000b100b3
:101900001dff3700800078000040eb00cc09070085
:101910000140fe00d8320700e20f5000fcff3a0001
:101920000000060000342000e822b700f0cb2f00b2
:10193000e422b600c520a80000000600881f780039
:10194000af090700210020000040eb00b7090700a5
:10195000d100200010c0b300b40907002e300700ea
:1019600080c3b30090fc0700e202a800e222a800b6
:10197000e802a800e822a800de02a900de22a900f1
:10198000e402a900e422a900e202a900a00f2000bd
:10199000dcff0700e202a800e222a900a00f20005d
:1019a000d8ff0700e222a800e822a900a00f20002b
:1019b000d4ff0700e822a800e802a900a00f200039
:1019c000d0ff0700e802a800cac2a80061fc070017
:1019d0000004e000fdff3a00c0c0b300effa0700ca
:1019e0005cfc07000004e000fdff3a0010a32f009c
:1019f00048fc070057fc07000004e000fdff3a0028
:101a000000c4b3003bfb070052fc07000044780011
:101a10000004e000fcff3a0000a22f003dfc07009c
:101a2000007d2000b7ff0700cac2a900bdff070064
:101a3000084078009a0a070020f4b7000004e0008c
:101a4000710032002054e20018003a00bd31070056
:101a50000004e00035003a0022c1b300e1ac2f00e1
:101a6000a01c2100541f07000000e00052003200bb
:101a70000000cf000000e9004f00de00c8f1b70011
:101a80000b0507004808070089fc07008c070700c2
:101a90007bfe07008c00a80024070700380707001a
:101aa0009b3207004f0478000000060029fc070065
:101ab0000004e000fdff3a0010c0b300b7fa0700d1
:101ac000502e2100010020003e01070021fc0700ec
:101ad0000004e000fdff3a00b0a82f000dfc070055
:101ae0001cfc07000004e000fdff3a0000c4b30046
:101af00000fb070017fc07000004e000fdff3a00b0
:101b0000b0a92f0003fc07008c20ef0060048000c8
:101b10007004880070048000800488000040fe008b
:101b2000883107000004e000cbff320009fc070009
:101b30000004e000fdff3a0010c0b30097fa070070
:101b4000502e2100010020001e01070001fc0700ab
:101b50000004e000fdff3a00c0aa2f00edfb0700e3
:101b6000fcfb07000004e000fdff3a0000c4b300e6
:101b7000e0fa0700f7fb07000004e000fdff3a0071
:101b8000d0ab2f00e3fb07008c20ef006004800047
:101b90007004880070048000800488000040fe000b
:101ba00022c1b300e1ac2f00a01c2100021f0700de
:101bb0000000e000aeff3a00a28e8000b38e8000ed
:101bc000a01c21008e2307000000cf000000e900c8
:101bd0004f00de00c8f1b700b5040700f2070700a8
:101be00033fc07003607070025fe07008c00a8001d
:101bf000ce060700e2060700453207004f047800d2
:101c000000000600a9ff3700a11e2100dc1e07000e
:101c100020f4b7002054e2008cff3200a3ff37000d
:101c20000040eb000a09070059070700de0707001c
:101c30001ffc0700e202a800e222a800e802a800b8
:101c4000e822a800803821002eff07000001eb00e9
:101c50008000eb0070002000b1040700fc3fef00a3
:101c60008138210010c0b300f50837000200fa00e7
:101c7000889fbe00e8ff8000e20f54002000320081
:101c800007003600e30f540087003200e40f5400d1
:101c90004a0032004f04be000080fa000000060037
:101ca0000800e00035003a00398e8000ec8f5400c7
:101cb00085003e00e88f54008d003100e18f540014
:101cc000f4ff3a00411f20000040eb00dc08070051
:101cd000cac2a800e202a900e9ff8800fe7fef0067
:101ce0000001eb008000eb00090078008c04070085
:101cf0004f04be000080fa0000000600e8ff370035
:101d0000308e8000e20f500036003200e30f5000aa
:101d100039003200e10f5000deff3a0040002000a1
:101d2000e0ff88001a0707008afb07000004e000b4
:101d3000fdff3a0010c0b30018fa0700502e210032
:101d4000010020009f00070082fb0700004478008c
:101d50000004e000fcff3a00a0ad2f006dfb07007f
:101d600081bb200008407800b50807004f04be0082
:101d70000080fa0000000600c9ff3700e10f5400a0
:101d8000c4ff3a00388e8000e20f5400c1ff3a00d1
:101d9000e222a900c631ef00813821000040eb00ab
:101da000a7080700f0060700e8ff88004f04be0000
:101db0000080fa0000000600b9ff3700308e800076
:101dc000e10f500058003200e20f5000b1ff3a001e
:101dd000c851e20003003200a11c210040ae2f00d8
:101de000d52a07008eff07004f04be000080fa00ce
:101df00000000600aaff3700e2c2bf000000d100c9
:101e0000610060000004a20000404000212e20007c
:101e1000914078000114a10080c070008000fd0096
:101e2000e2e2b7008000fd0054070700e68057009b
:101e3000600807000000e00096ff32008000780094
:101e400066805700b4fb0700e10f4000e5ff320059
:101e5000e10f50008fff3a00a5fd07000004e000ed
:101e600038003200e24f50008aff3e00e822a9000d
:101e700030002000e0ff8800c5060700813e2000fa
:101e80000040eb006e080700020120001142210013
:101e900060002000220407004f04be000080fa000a
:101ea000000006007eff3700308e8000e20f5000f9
:101eb00078ff3a0020af2f009c310700d082a900a4
:101ec00057ff0700c8ff3700ee8f540071ff3a003c
:101ed0000001eb008000eb0009007800100407000f
:101ee0004f04be000080fa00000006006cff3700bf
:101ef000cac2a800080178008800780009007800ac
:101f00000704070008007800feffb70081382100b1
:101f100010c0b3004a0807004f04be000080fa005a
:101f2000000006005eff370081bb20000040eb0090
:101f3000430807004f04be000080fa0000000600be
:101f400057ff370036ff0700020120001142210031
:101f500050002000f20307004f04be000080fa008a
:101f6000000006004eff370074fe070042310700f4
:101f7000308e88000000e00007003200ed0f5000b6
:101f80000900320039ff07003b310700308e88001e
:101f90000000e000f9ff3a00fe5fe20007003a00af
:101fa0000140fe00f1ff3700cac2a9000001e200b3
:101fb000feff320010c0b300feffb7000040fe007d
:101fc000eaff37000002be00e00f5000e08f58002b
:101fd00001003c00000006000000e900670060000e
:101fe0006101b8000060fe00100020000100200028
:101ff000800f5200818f5a00f6ff3200e00f51002f
:10200000e08f59002b003200800f5100818f590062
:10201000220032002600200007002000860f510019
:10202000878f59001a003200e30f5100e08f5900ea
:1020300014003200e40f5100e08f59000e0032000e
:10204000e50f5100e08f590008003200e60f510003
:10205000e08f5900020032000060fe000600be0062
:102060000060fe0061004000e08048000060fe006b
:1020700061004000e08048000060fe006100400018
:10208000e08048000060fe0061004000e080480001
:102090000060fe0061004000e08048000060fe003b
:1020a00061004000e0804800800f5200818f5a009c
:1020b000c8ff32000060fe0061004000e080480080
:1020c0000060fe000060fe000060fe000060fe0098
:1020d0000060fe000060fe000060fe00670040003f
:1020e000e0804800800f5200818f5a00b9ff320013
:1020f0000060fe0061004000e08048000060fe00db
:102100000060fe000060fe000060fe000060fe0057
:102110000060fe000060fe0067004000e0804800b4
:10212000800f5200818f5a00e2ff3a00a9ff37006a
:102130003400f800881f78002d0007004f04780055
:102140008020a900ffff37003400f800881f7800c6
:10215000270007004f0478008060a900ffff3700c8
:102160003400f800881f7800210007004f04780031
:102170008040a900ffff37003400f800881f780076
:102180001b0007004f0478008080a900ffff370084
:102190003400f800881f7800150007004f0478000d
:1021a0008020a900ffff37003400f800881f780066
:1021b0000f0007004f0478008060a900ffff370080
:1021c0003400f800881f7800090007004f047800e9
:1021d0008040a900ffff37003400f800881f780016
:1021e000030007004f0478008080a900ffff37003c
:1021f00008c0b300a801880000000600889fbe0048
:10220000800478000000e0000f00320051fa07005f
:102210000004e000fdff3a0000c4b30035f90700f8
:1022200009007800f8f707000044780049fa070031
:102230000004e000fdff3a000900780035fa0700cd
:10224000ef4f5400070034004f04be0000000600aa
:1022500000c2b30072f807000844e800f04f5400d1
:10226000f9ff32003bfa07000004e000f8ff3200fb
:1022700038fa07000004e000faff3a00f4ff3700e4
:10228000515f21009140780001007800f6f5b70019
:10229000f755e2000a00320090c0b300920020001f
:1022a0000104e00002003a00fe04070000000600fe
:1022b0000140e9000081fb00fa040700fbff370042
:1022c0000000eb00425f210012417800020ce100a7
:1022d000f6ff320090c0b300920020000104e0003d
:1022e000f1ff3200f2ff3700889fbe008a9fbe00d8
:1022f0000005780001447800824578008344780026
:1023000014fa07000004e000fdff3a00f0c0b3003b
:10231000a2f807000904e00019003a000ab088009a
:102320000004fd00fbf5b700fdf5b7000004fd005b
:102330008005fd00fef5b7008005fd008004fd006e
:10234000fcf5b7008004fd00fa75ef0001fa070004
:102350000004e000fdff3a000840780030f8070074
:10236000fcf907000004e000fdff3a0030c1b300b3
:102370008af807004f05be004f04be0000000600ab
:102380008a0078000940e9006740600088587800ba
:1023900012c0b30082cf5400e0ff32000004e0001e
:1023a0001c003200824f500016003200e24f5000f5
:1023b00012003200e34f50000e003200e44f500094
:1023c0000a003200e54f500006003200e64f500090
:1023d000020032008858780022c0b3008858780084
:1023e0000241e800885878000241e80088587800e7
:1023f0000241e800885878000241e80088587800d7
:102400000241e800885878000241e80082cf540079
:10241000c2ff3200885878000100780088587800a0
:102420008848780028409800384098004840980034
:10243000584098006840980068414100e70040001b
:1024400082cf5400b5ff3200885878000100780030
:1024500088587800884878002840980038409800cc
:1024600048409800584098006840980068414100f2
:10247000e700400082cf5400e6ff3a00a7ff370094
:10248000889fbe008a9fbe008c1f780000057800e0
:10249000814478000246780003447800844578003f
:1024a000acf907000004e000fdff3a00f0c0b30003
:1024b0003af807000a00780053f707008000780018
:1024c000884f50002a0039000880fb008040eb0054
:1024d00001707d000ab0880009007800fdf5b700a2
:1024e0000c007800fef5b70008007800fcf5b70096
:1024f0000b80fb0060407d00fbf5b7008005fd0010
:10250000faf5b7008005fd0092f907000004e0002d
:10251000fdff3a000a0078007ef907008b4478003e
:102520000984fb000a00780037f70700800f540089
:102530000b00310087f907000004e000fdff3a00be
:1025400030c1b30015f807008944e8000984fb0096
:102550000a0078002cf70700800f5400f5ff3900bf
:102560004f0678004f05be004f04be000000060075
:10257000014178008841780001c0ea00084040002d
:10258000674060008180fb0089707d000241e800a7
:10259000884f5100ccff32000004e00023003200dd
:1025a000e14f50001c003200e24f50001700320093
:1025b000e34f500012003200e44f50000d00320093
:1025c000e54f500008003200e64f50000300320093
:1025d0008280fb0089707d000241e8008280fb0060
:1025e00089707d000241e8008280fb0089707d00d7
:1025f0000241e8008280fb0089707d000241e80012
:102600008280fb0089707d000241e8008280fb002f
:1026100089707d000241e8008280fb0089707d00a6
:102620000241e800834f5100a7ff32008280fb0087
:1026300089707d000240e8008080fb0089707d0089
:102640000041e8008280fb0089707d0000c1e80045
:102650008280fb0089707d00634140008280fb0026
:1026600089707d00644140008280fb0089707d009c
:10267000654140008280fb0089707d00664140001a
:102680008280fb0089707d0067414000834f5100cc
:102690008dff32008280fb0089707d000240e800df
:1026a0008080fb0089707d000041e8008280fb0093
:1026b00089707d0000c1e8008280fb0089707d0088
:1026c000634140008280fb0089707d0064414000ce
:1026d0008280fb0089707d00654140008280fb00a4
:1026e00089707d00664140008280fb0089707d001a
:1026f00067414000834f5100ccff3a0072ff370022
:10270000881f7800fb55ec0000447800fbf5b7000b
:10271000fed5bf00804f5400100036000881fb003a
:102720008080fb000100e800f8c7b300800f510073
:102730000a0032000180e800e8c2b300800f5100b7
:1027400006003200801f7800fdd5bf00fbf5b70002
:102750004f007800d85f210018447800fdf807008a
:102760000004e000fdff3a00084078002cf7070065
:10277000f8f807000004e000fdff3a0030c1b300a4
:1027800086f707004f04780000000600881f7800d5
:10279000fbd5bf00d15f2100914078000104e1002a
:1027a0001a0032000044e90008007800fbf5b70089
:1027b0008880fb00fed5bf000080fb000000e80021
:1027c000808f50000c003200e2f807000004e000a7
:1027d000fdff3a000840780011f70700ddf8070018
:1027e0000004e000fdff3a0030c1b3006bf70700c2
:1027f0004f04780000000600f8c7b300d5f80700c2
:102800000004e000f0ff3a00f2ff3700fed5ec00d4
:10281000fbf5b700e8c2b300cef807000004e00003
:10282000e9ff3a00ebff37001a00fa00881f780032
:102830007a815700fb8057007c8057008e2c070060
:1028400079815700f880570076805700952c070053
:102850007fe197000280fb00a50020001100090025
:102860000580d8000080fb007484570001c3b300ca
:10287000014c400090030700f2e79f000243b000c4
:10288000d2ef9f00f4c2b300e4ef9f000fe997007e
:102890008c030700f3ef9f008703070082ef9f0080
:1028a0000243b00082f79f0094f79f005fb197004a
:1028b000833e20008a030700a4f79f000380b9002d
:1028c000000151004306200085030700b4f79f0074
:1028d0000380b90000015100110009000581d800f2
:1028e00001c3b30081414000034c98006a00b90065
:1028f00000015100d2b79f000243b000d2f79f0001
:1029000000c2b300e0f79f004fe197006d0307009e
:10291000f3f79f0068030700c2e79f000243b0007f
:1029200082ff9f00a0c3b30090ff9f005fe197006c
:1029300064030700a3ff9f005f030700d2e79f0027
:102940000243b000b2ff9f000040eb00c0ff9f00b9
:1029500080f807000004e000fdff3a0065f707007b
:102960007cf807000004e000fdff3a000800780052
:1029700068f807004f0478000080fa0000000600a5
:10298000fbd5bf000081fb00fed5bf008080fb00af
:102990000180e800800f51002a0032000100e800a9
:1029a000800f510024003200fcd5bf00fa55e3002f
:1029b0002300310067f807000004e000fdff3a0043
:1029c00070c1b300f5f60700a25f21001241780044
:1029d0008280fb0000b08000b35f2100934178004b
:1029e000837078000240e800faf5b700c15f21006b
:1029f000914078000104e100310032008080fb004a
:102a000000b0800061407800fbf5b70051f8070086
:102a10000004e000fdff3a00fbd5bf0080f6070090
:102a20004cf807000004e000fdff3a0030c1b3009d
:102a3000daf6070000000500fad5bf0009003a00e9
:102a400000000500fad5bf000080fb000041eb004c
:102a500001b0800002f07800fad5bf000080fb00d2
:102a6000000006000040e900faf5b7000080fb0016
:102a700001b0800060c07800fbf5b70035f80700b2
:102a80000004e000fdff3a0000c2b30064f6070056
:102a900030f807000004e000fdff3a0030c1b30049
:102aa000bef607002bf807000004e000dfff32004d
:102ab00028f807000004e000faff3a00dbff3700c7
:102ac000fed5ec00fbf5b70022f807000004e0009b
:102ad000fdff3a00e0c2b30051f607001df8070001
:102ae0000004e000ceff3a00d0ff3700881f7800d6
:102af0000004780040aa8800ea0f50000500320068
:102b000014f807000004e000fdff3a0010c0b30015
:102b1000a2f60700f70207002afd07006140b8008f
:102b2000ed0f5000e08f580021003e0000600100d2
:102b30002f003700d90037000b0037003e00370068
:102b40004f003700560037006c0037007300370025
:102b5000830037008a0037009f003700aa00370043
:102b6000b100370014003700faf707000004e00056
:102b7000fdff3a00c0942f00e6f70700f5f70700c5
:102b80000004e000fdff3a0000c4b300d9f60700de
:102b9000f0f707000004e000fdff3a00e0912f008d
:102ba000f815ab0001003a00a0912f00d9f70700fb
:102bb0004f04780000000600e6f707000004e0007c
:102bc000fdff3a0010c0b30074f60700502e21003c
:102bd00001002000fbfc0700def707000004e00016
:102be000fdff3a00709f2f00caf70700f0ff370083
:102bf000d8f707000004e000fdff3a0030932f00f3
:102c0000c4f70700d3f707000004e000fdff3a0017
:102c100000c4b300b7f60700cef707000004e000d9
:102c2000fdff3a0020922f00baf707004f0478000a
:102c300000000600e0ff3700c6f707000004e000d0
:102c4000fdff3a0090952f00b2f70700c1f707008b
:102c50000004e000fdff3a0000c4b300a5f6070041
:102c6000bcf707000004e000fdff3a0084fd070008
:102c7000a8f707004f04780000000600ceff3700d9
:102c8000b4f707000004e000fdff3a00a0962f0013
:102c9000a0f707004f04780000000600c6ff3700c9
:102ca000acf707000004e000fdff3a00a0972f00fa
:102cb00098f70700a7f707000004e000fdff3a00bf
:102cc00000c4b3008bf60700a2f707000004e00081
:102cd000fdff3a00f0c0b30030f60700d3c0b300e8
:102ce00092c3b30001c3b300a05321007efd0700cf
:102cf0004f04780000000600afff370095f707008b
:102d00000004e000fdff3a00b0982f0081f70700b3
:102d10004f04780000000600a7ff37008df707007a
:102d20000004e000fdff3a00a0992f0079f70700aa
:102d300088f707000004e000fdff3a0000c4b3007c
:102d40006cf6070083f707000004e000c7ff3200bd
:102d500080f707000004e000faff3a00c3ff3700e5
:102d60007cf707000004e000fdff3a00b09a2f0056
:102d700068f707004f047800000006008eff370058
:102d800074f707000004e000fdff3a00c09b2f002d
:102d900060f70700f42b0700000478000000e00053
:102da00083ff32006bf707000004e000fdff3a00ec
:102db00000c4b3004ff6070066f707000004e00008
:102dc000fdff3a000800780052f707004f04780032
:102dd0000000060078ff37005ef707000004e000ff
:102de000fdff3a0043f607005af707000004e00031
:102df000fdff3a00c09c2f0046f707004f04780003
:102e0000000006006cff370052f707000004e000e6
:102e1000fdff3a00d09d2f003ef707004f047800d9
:102e20000000060064ff37004af707000004e000d6
:102e3000fdff3a00709e2f0036f7070045f70700a8
:102e40000004e000fdff3a0000c4b30029f60700cb
:102e500040f707000004e000fdff3a00f0c0b300b7
:102e6000cef50700209f2f00a15321000300090089
:102e7000b05878004000b10034c0b30043c0b30084
:102e800092c3b30001c3b300a05321007cfd07002f
:102e90004f0478000000060047ff370062fe07007d
:102ea0004f0478000000060043ff370000000600d2
:102eb000881f78000044eb000004fd00f6f5b70021
:102ec000f5f5b700f4f5b700f7f5b7000004fd001d
:102ed000f815a800c000200004ff07000004fd0052
:102ee0005af5b7006bf5b7007cf5b7008df5b70064
:102ef0009ef5b7000004fd000004fd00aff5b7002b
:102f0000c0f5b700d1f5b700e2f5b7000004fd0049
:102f1000f375ef000000eb004f047800000006009e
:102f2000881f78000001780001047800e10f50004c
:102f300027003200e70f50002000320040aa800036
:102f40000100200061005000e0805800ec0f5000ac
:102f5000e08f5800020036004f04780000000600a1
:102f6000006001001f003700d3003700c8003700a1
:102f7000e3003700b7003700ac003700950037009a
:102f8000d500370089003700610037005600370050
:102f9000770037001e003700ea0f5100e8003a00c2
:102fa000f5d5bf0012c1b3000440bc00a0542100fd
:102fb00000004100002b0700b92c07001000200082
:102fc000cafe07004f04780000000600e4ff370047
:102fd000d0002000c5fe07004f0478000000060066
:102fe000dfff3700e90f5100ae003200ee0f510055
:102ff00044013200e80f5100d7ff3a00b000200032
:10300000bafe07004f04780000000600d4ff370026
:10301000e50f51001b003200e60f5100ceff3a00d1
:10302000ccf607000004e000fdff3a0010c0b3003a
:103030005af50700af010700e2fb0700c5f60700dd
:103040000004e000fdff3a0008007800b1f6070038
:10305000c0f607000004e000fdff3a0000c4b30022
:10306000a4f50700bbf607000004e000fdff3a00ee
:1030700060a12f00a7f607004f04780000000600ab
:10308000b7ff3700b3f607000004e000fdff3a0089
:1030900010c0b30041f5070096010700c9fb070007
:1030a000acf607000004e000fdff3a0008007800dd
:1030b00098f60700a7f607000004e000fdff3a00bd
:1030c00000c4b3008bf50700a2f607000004e0007f
:1030d000fdff3a00e0a02f008ef607004f047800b5
:1030e000000006009eff3700e90f5100b3ff3200d9
:1030f000ac003e00e80f510097ff3a000200780054
:103100007afe07004f0478000000060094ff3700a5
:10311000ea0f5100d900320089003e00e80f51004b
:103120008dff39008bf60700004478000004e000b2
:10313000fcff3a0090c0b3006ef50700fa55e200bc
:103140004b0132000004fd00faf5b7000004fd0059
:1031500080f607000004e000fdff3a0080942f0095
:103160006cf607004f047800000006007cff370073
:10317000e90f5100770032006b003600ea0f510072
:10318000e4003200eb0f510073ff3a0071f60700c4
:103190000004e000fdff3a00c0c0b300fff40700e8
:1031a000b000200051fe070096ff3700e90f5100e4
:1031b000af0032006b003e00e80f510066ff3a009e
:1031c000eb2a07000dfc07004f0478000000060002
:1031d00063ff3700e90f5100af00320078003e0076
:1031e000e80f51005cff3a00f6d5bf00415f2100b7
:1031f000914078000104e1002701320091c0b30042
:10320000920020000004e000020032008040e9004b
:103210000181fb000100780022010700f7fb070095
:103220004f047800000006004dff3700e90f510001
:103230005000320054003e00e80f510046ff3a00b3
:103240004000200029fe07004f047800000006001f
:1032500043ff3700e90f51003e00320032003600d4
:10326000ea0f5100eb003200eb0f51003aff3a0039
:1032700038f607000004e000fdff3a00c0c0b300cc
:10328000c6f407004000200018fe0700eeff3700dc
:10329000e90f5100eaff32003fff3e00e80f510006
:1032a0002dff3a002000200010fe07004f04780098
:1032b000000006002aff3700e90f51001500320018
:1032c0004d003e00e80f51003cff32004f047800f3
:1032d0000000060022ff3700e90f510047ff3200cf
:1032e0003e003e00e80f51001bff3a006000200046
:1032f000fefd07004f0478000000060018ff3700ad
:10330000e90f5100f9ff320052003e00e80f510072
:1033100011ff3a0030002000f4fd07004f04780050
:10332000000006000eff3700e80f51000aff3a00c8
:10333000f3fc07004f0478000000060008ff370088
:10334000eb0f51001dff32004f0478000000060013
:1033500003ff37000dfd07004f0478000000060052
:10336000fffe3700ea0f5100ba003200eb0f5100a8
:10337000f9fe3a0080002000dcfd07004f047800d1
:1033800000000600f6fe3700ea0f5100ecff3a009d
:1033900070002000d5fd07004f04780000000600f3
:1033a000effe3700ea0f5100e5ff3a00c0002000b1
:1033b000cefd07004f04780000000600e8fe37004d
:1033c000ea0f5100fdfe3200eb0f5100c7ff320043
:1033d0004f04780000000600e1fe3700ea0f5100bc
:1033e000d7ff3a0090002000c0fd07004f0478008e
:1033f00000000600dafe3700ea0f5100d0ff3a0065
:10340000c0af8000800078000100a200e180600071
:103410000000a10001007000c0af8800cdf50700da
:103420000004e000fdff3a0000c4b300b1f407005f
:10343000c8f507000004e000fdff3a00e0912f000e
:10344000f815ab000bff3a00a0912f00b1f5070073
:1034500009ff3700ea0f5100b9ff3a005000200081
:10346000a2fd07004f04780000000600bcfe3700f4
:10347000252a070061fb070069ff3700fa55e200c3
:10348000cefe3a00c42a0700852b0700100020005a
:1034900096fd0700cbfe3700615f21009140780068
:1034a000f5d5bf00000ce1000600320093000700d4
:1034b000ea4f500010003200020078004ffb070076
:1034c00057ff3700415f2100914078008000fd00e8
:1034d000f6f5b7008000fd00f755e200f3ff3a0073
:1034e0000001eb00000ce100f3ff32008300070055
:1034f000ea4f5000f0ff3a00f675ef000200780046
:10350000eeff3700c8fc07004f04780000000600fb
:1035100093fe37001afd07000004e0008efe320023
:10352000e44f50001f0032008af507000004e0005d
:10353000fdff3a0010c0b30018f407006d0007004b
:10354000a0fa070083f507000004e000fdff3a0041
:10355000d09f2f006ff50700209f2f00a15321005f
:1035600003000900b05878004000b10079f5070069
:103570000004e000fdff3a0000c4b3005df4070062
:1035800034c0b30043c0b30092c3b30001c3b3005f
:10359000a0532100bafb07004f047800000006008a
:1035a0006ffe37006bf507000004e000fdff3a00f6
:1035b000c0c0b300f9f3070003b0800013409000cf
:1035c0008000fb0040062000008ab9001300fb00c9
:1035d0000003b100823e20000280b90000014200d9
:1035e000234090000000fb006a00b9008000410009
:1035f000334090000000fb008080400000b32e00ac
:1036000000804000172907001000200037fd070048
:103610006cfe3700dafc07000004e0004efe3200ca
:103620004cf507000004e000fdff3a00c0c0b30005
:10363000daf3070000b080005f290700182b0700ad
:103640001000200029fd07004f047800000006004c
:1036500043fe37000200780024fd070010c0b300cd
:10366000faf5b7004f047800000006003cfe370072
:1036700010c0b300faf5b70036f507000004e0000b
:10368000fdff3a0040942f0022f507004f04780018
:103690000000060032fe3700f9fa0700d7fa0700eb
:1036a000dffe3700f6f5b7007110b900a254210013
:1036b00000004100000006006a00b900004151000e
:1036c000000006000280fb00110009000580d80000
:1036d0000080fb0001c3b3008141400000000600f0
:1036e000110009000381d80001c3b300014240006a
:1036f00000000600502e2100010005000140780066
:1037000012c1b3000440bc00a054210000014100dc
:103710000140e800f6f5b7000000060000000600d2
:10372000000006000000060000000600000c20005b
:10373000c222b70000032000c822b700d5a2a8000b
:103740000108200001007800c020b700820c200092
:1037500002007800c220b70001007800c420b70042
:1037600002007800c620b7009bc0bf00efc0400039
:10377000014060000064a0009be0b700000006006c
:1037800010168000a0ba88004016800090ba880009
:10379000a016800080ba880085e0a9008de0a8000e
:1037a000000006003600f800809fbe00829fbe0029
:1037b000849fbe00869fbe00889fbe008a9fbe0079
:1037c0003400f80000c0b300a00188001916800082
:1037d0004a168000ab168000a0ba800000806c0002
:1037e00000047800080cb2000068a3000200320058
:1037f0000968a3002e0032000878a30002003200fe
:103800000978a3002c00320080ba800000806d008f
:1038100000d8a300020032000bd8a300220032001f
:1038200090ba800000006d000058a3000200320032
:103830000a58a3000d003200a9ba88009aba88007d
:103840008bba880085e0a9003400f9004f05be005e
:103850004f04be004f03be004f02be004f01be002a
:103860004f00be003600f90000400600152b07008f
:10387000a9ba88009aba88008bba880085e0a900a6
:103880003400f9004f05be004f04be004f03be00d8
:103890004f02be004f01be004f00be003600f900cf
:1038a00000400600f1ff3700042b0700dcff370063
:1038b000fe2a0700d0ff3700fe2a0700d2ff37009c
:1038c00001802000629020008018eb008018eb003f
:1038d000010078008018eb008008eb00e400400055
:1038e0008008eb00e60040008008eb00e8004000a4
:1038f0008008eb00ea0040008008eb00ec0040008c
:103900008008eb00ee0040008008eb00f000400073
:103910008008eb00f2004000828f5000ebff3a007d
:10392000403420000015880068405000a262b700b3
:1039300063404000a462b7006f4050001261b700be
:1039400020002000700888008ce0a90030002000d2
:1039500030158800aa22ef0070ff2f004015880064
:103960008d60a8000000060030002000e0ba88004a
:103970000000eb00f0ba88005008880084e0a9003d
:103980008560a900a1e2a80013e1a80000000600dc
:1039900013e1a900a1e2a900000006003600f8002a
:1039a000809fbe00829fbe00849fbe00869fbe0097
:1039b0003400f80000c0b300a001880084e0a90032
:1039c0008560a900e1ba80000280200001804000eb
:1039d00003148000033079000100e800000040007b
:1039e00013148000033079000180e80000004000db
:1039f0002314800003307900638040000000400001
:103a000033148000033079006480400000004000df
:103a100043148000033079006580400000004000be
:103a2000531480000330790066804000000040009d
:103a3000631480000330790067804000000040007c
:103a4000731480000330790068804000000040005b
:103a5000831480000330790069804000000040003a
:103a600093148000033079006a8040000000400019
:103a7000a3148000033079006b80400000004000f8
:103a8000b3148000033079006c80400000004000d7
:103a9000c3148000033079006d80400000004000b6
:103aa000d3148000033079006e8040000000400095
:103ab000e3148000033079006f8040000000400074
:103ac000f314800003307900f0804000e1ba8800f0
:103ad00030042000808f50001d003200300820008c
:103ae000808f5000070032003400f9004f03be0001
:103af0004f02be004f01be004f00be003600f9006d
:103b00000040060000488000004088001348800004
:103b100013408800204880002040880030002000aa
:103b2000e0ba880001042000f1ba88003c2a0700ae
:103b30003400f9004f03be004f02be004f01be002b
:103b40004f00be003600f90000400600edff3700d0
:103b50005e37ef0030002000312a07003400f90002
:103b60004f03be004f02be004f01be004f00be001b
:103b70003600f90000400600e2ff3700f0ba80008e
:103b8000000040000180200001004000000006000d
:103b90000da2a8000f42a8000e22a90020002000bc
:103ba000a01088000000060020732100f4f1070037
:103bb0008000eb0091b0880071b0880030002000d8
:103bc00040b0880011b0880031b0880021b0880072
:103bd00000000600889fbe008a9fbe008c9fbe002a
:103be0008004780081067800cb6021009b45780036
:103bf0005ab0800094b0800075b0800087b080001b
:103c000046b080000006eb008c007800b80320006e
:103c100061817c0020b08000820f500001003d00d7
:103c200002007800f10007000100340080017800f4
:103c300033b0880010b08000800f510053003c006a
:103c400061003d00170020000003eb00880f5300c7
:103c500005003c00e18f5200880032006b00390003
:103c6000e28f52003c0032008180e80061817c00dc
:103c700020b08000820f500027003500db000700d5
:103c8000010034008001780033b0880010b080005b
:103c9000800f5100400034008003eb0007037800e0
:103ca000880f53000c003c00e18f5200630032008b
:103cb0001b0031000700e00020003a000402e80089
:103cc000e30f5200940034008045eb000005eb0048
:103cd0000a027800150020008180e800000820001a
:103ce000808f5000caff3a000b0078000cf6b70036
:103cf0005ab0880094b0880075b0880087b08800fa
:103d000046b088000c0078004f06be004f05be008c
:103d10004f04be000000060002007800d7ff370005
:103d2000e28f5200ecff3a000402e800e40f520078
:103d300030003400ea0f52002c0034000002eb0087
:103d4000840278008180e80000082000808f500005
:103d5000afff3a00e4ff37000402e800e40f52002e
:103d60004f003400ea0f5200710034000002eb00f3
:103d7000840278008180e80061817c0020b08000ae
:103d8000820f5000bdff3d00e3ff37008003eb00d2
:103d900007037800adff3700800f51000e0035009b
:103da000880f5300450034000236ef000002eb009c
:103db000840278008180e80000082000808f500095
:103dc00093ff3a00c8ff3700880f53003f003c00c4
:103dd0000603e8009dff3700170020000003eb00fa
:103de000880f5300bcff3c00afff3700e18f53004a
:103df00061003200250020008180e80000082000da
:103e0000808f500082ff3a00b7ff37000700e000c4
:103e1000d6ff3a000402e800e30f520034003c00f1
:103e2000870278008180e80061817c0020b08000fa
:103e3000820f500091ff3d00b7ff37000402e800f9
:103e4000e60f5200a4ff3a000a38dd0080c5750075
:103e50000a05e8000002eb00e80f55009eff3a005b
:103e60000002eb00250020008180e800000820000f
:103e7000808f500066ff3a009bff37000402e80085
:103e8000e60f520078ff3a000a38dd0080c5750061
:103e90000a05e8000002eb00e80f550072ff3a0047
:103ea000250020008180e80061817c0020b0800036
:103eb000820f500071ff3d0097ff37000603e800b6
:103ec000880f530084ff3c0077ff37000236ef0075
:103ed0000002eb00840278008180e80061817c00b0
:103ee00020b08000820f500064ff3d008aff370041
:103ef0008745780007057800070278001500200044
:103f00008180e80061817c0020b08000820f500039
:103f10005aff3d0080ff37008002eb008180e800ff
:103f200000082000808f500039ff3a006eff3700f4
:103f3000e18f5300daff3a008b767e000c06e80032
:103f400020b08000008041000080d10010b08800c7
:103f500030b0880020b088000002eb0084027800b6
:103f60008180e80061817c0020b08000820f5000d9
:103f700042ff3d0068ff37008b767e000c06e800ac
:103f800020b08000008041000080d10010b0880087
:103f900030b0880020b088000002eb008402780076
:103fa0008180e80000082000808f500018ff3a0050
:103fb0004dff3700881f78000104780061902000d1
:103fc000f6f0070023732100629020004161210078
:103fd00000042000c0f00700880078004061210044
:103fe000fcfe07004f0478000000060020b08800a7
:103ff00030b0800082017800800f51000000060080
:104000000000eb0060ba880040ba880070ba8800ef
:1040100050ba880090592100d0088800000028007c
:10402000f00888008ea0a800000006000080fb00b9
:1040300000004000c2742100013079000000060039
:104040000080fb000000400082742100faff37006e
:104050000080fb0000004000827421008000eb0023
:10406000f5ff37003600f800809fbe00829fbe003b
:10407000849fbe00869fbe003400f80000c0b300dd
:10408000a001880086a0a9006b04070040ba800048
:104090000000e000030032000000e90040ba8800a0
:1040a0001700320050ba80000000e0000300320028
:1040b0000000e90050ba8800070032003400f9001f
:1040c0004f03be004f02be004f01be004f00be00b6
:1040d0003600f9000040060070ba8000d0280700c2
:1040e0003400f9004f03be004f02be004f01be0076
:1040f0004f00be003600f90000400600f6ff370012
:1041000060ba8000c6280700e6ff37000080fb0089
:104110005011880026c2bf000008a300fdff320036
:10412000501180000080fb0000000600401f2000ae
:10413000c0ba880000c0eb00f4ff0700e14f400068
:10414000020032005817e200faff3a0000c0ea000d
:104150000080fb000000e9004f00de0000000600c8
:10416000e922a80000c0eb00e8ff0700e802a80071
:1041700000000600881f7800e802a900e922a900d3
:1041800000c0eb00e1ff0700e8ff07000004780033
:10419000100020000800e000020032004f04780008
:1041a00000000600eeff0700080078004f047800ca
:1041b00000000600fbff3700889fbe0080047800e7
:1041c00001047800e802aa0040062000d0ba880066
:1041d00000c0eb00cdff0700e14f400005003a00b2
:1041e0005a17e200faff3a000000eb004f04be004d
:1041f00000000600e24f4000fbff3a008800d100bb
:10420000090178008001eb00f40f200054118800b0
:1042100026c2bf000008a300fdff3200501180003d
:10422000004978005411880026c2bf000008a3008e
:10423000fdff320050118000104198000281e8001b
:104240008301e800838f5000f0ff3a0000c0eb00cc
:10425000aeff070000c0eb00acff0700100020001d
:104260004f04be0000000600e2ff3700889fbe003a
:104270008004780001447800e802aa00abff070040
:104280000000e00003003a000000eb004f04be0015
:1042900000000600084078009cff0700e34f440040
:1042a0001b00320089007800021020001180fb0002
:1042b0005011880026c2bf000008a300fdff320095
:1042c00050118000114090000080fb0050118800c8
:1042d0008180e80026c2bf000008a300fdff320075
:1042e000501180000201e900f0ff3a0000c0eb002d
:1042f00086ff070000c0eb0084ff070000c0eb0052
:1043000082ff07007f006000e50f5000deff3a00eb
:10431000100020004f04be0000000600ddff370043
:10432000889fbe008a1f7800004578000204be0006
:104330000004e0005200350089ff07008dff0700f0
:10434000f10f20000000e00004003a0001007800b6
:104350004f0578004f04be00000006000a407800b8
:104360000064a00069ff07004848de00010020004b
:1043700066ff07004048de000100200063ff0700e1
:104380004849dd004840de0000007100c848de00fa
:104390005eff0700084078005cff070050c9b300cb
:1043a0000a04e000040032006e405000e84f55005f
:1043b0000100320010c0b30054ff0700ec4f55005d
:1043c0002c00320000c0eb0050ff07000004e000aa
:1043d00022003d0000c0eb004cff07000004e0009d
:1043e0001e003d0000c0eb0048ff07000004e00095
:1043f0001a003d0000c0eb0044ff07000004e0008d
:1044000016003d0000c0eb0040ff07000004e00084
:1044100012003d0000c0eb003cff07000004e0007c
:104420000e003d0000c0eb0038ff07000004e00074
:104430000a003d0000c0eb0034ff07000004e0006c
:1044400006003d0000c0eb0030ff07000004e00064
:1044500002003d0000c0eb002cff07008080fb0045
:10446000010078004f0578004f04be0000000600f0
:10447000baff370000c0eb0024ff0700d1ff370070
:104480000a74a1006011b80070c3b300a4ff070054
:10449000e14f5000a8ff36008080fb00f0ff37009e
:1044a0000400fa00889fbe008a1f780011002000d7
:1044b0000004e0002c003a006cd7bf0062046000ea
:1044c00027003a00d1132000411188000000280085
:1044d000301188004111880000c0eb000bff07007d
:1044e00000c0eb0009ff070000c0eb0007ff07005a
:1044f00000c0eb0005ff070000c0eb0003ff070052
:1045000000c0eb0001ff070000c0eb00fffe07004a
:1045100000c0eb00fdfe070000c0eb00fbfe070043
:1045200000c0eb00f9fe07006011b80008407800f9
:104530007bff070000447800e14f50001500320077
:104540008044eb008000eb00b1ba880004ff070054
:104550000904e00009003a002622ef006c17a800c9
:104560006cd7bf008080fb00010078004f05780009
:104570004f04be000080fa00000006006c17a9007e
:10458000f0132000401188006cd7bf008080fb0032
:10459000f5ff3700803e2000d0ba8800a21a200024
:1045a0000300200080c0b3005dff0700e14f500012
:1045b0003b003a0000c0eb00d4fe0700e0f79f008c
:1045c00000c0eb00d1fe0700f0f79f0000c0eb0039
:1045d000cefe070080ff9f0000c0eb00cbfe07006f
:1045e0008040780090ff9f000ff89700e14f500047
:1045f000d3ff3a00a0cab30080cf5000d0ff3a00ea
:104600005a17e200060032000200200003002400d6
:1046100090cab30042ff07000004e000f8ff3a0030
:104620005a17e200c6ff32006011b800a0c3b30001
:104630003bff07000004e000c1ff3a0000c0eb00b0
:10464000b2fe0700e0f79f0000c0eb00affe0700de
:10465000f0f79f0000c0eb00acfe070080ff9f005a
:1046600000c0eb00a9fe070090ff9f00eff097004d
:104670000180fb00c9c0b300c10020000068a30096
:10468000b1ff3a0049c0b30041002000b1ba880030
:10469000b3fe07000904e000afff3200b7ff3700a8
:1046a0006011b80090cab3001dff070029c0b30015
:1046b0009acab300e14f50000200360088447800e7
:1046c000084578005a17e200050032006011b80072
:1046d0000a40780012ff07000004e000f9ff3a00ea
:1046e0005a17e20096ff320002202000030020004b
:1046f00000c1b3000aff07000004e00090ff3a0089
:104700008980fb00b1ba880095fe07000904e0002b
:1047100091ff320099ff3700110020000004e000f3
:1047200002003a006cd7bf008080fb0001007800d7
:1047300000000600889fbe008a9fbe008c1f780084
:1047400081047800044478000004e000c1003a00cd
:104750000404e000bf0032006cd7bf0061056000b8
:10476000300020000d003a005677ab000f003200f9
:10477000e14f5400aa00320020c1b300e8fe070058
:104780000004e0001000320075fe07000000eb009e
:104790000804e00001003200100020004f067800fd
:1047a0004f05be004f04be00000006004918dd00a2
:1047b000c711de00830170004911dd00e14f540094
:1047c000edff3a0096003700084578000046eb0000
:1047d0000840e900674460000120200009007800db
:1047e00075fe07000000e000880032000920b000dc
:1047f0000a45e9008a4f5600840032000804e000b0
:104800003f003200e14f540034003200e24f5400c8
:104810002b003200e34f540022003200e44f5400da
:1048200019003200e54f540010003200e64f5400ea
:104830000700320001202000090078005efe07001a
:104840000000e000710032000920b0000a45e900d4
:10485000012020000900780057fe07000000e0005a
:104860006a0032000920b0000a45e900012020005a
:104870000900780050fe07000000e00063003200ed
:104880000920b0000a45e900012020000900780055
:1048900049fe07000000e0005c0032000920b00083
:1048a0000a45e900012020000900780042fe0700c7
:1048b0000000e000550032000920b0000a45e90080
:1048c00001202000090078003bfe07000000e00006
:1048d0004e0032000920b0000a45e9000120200006
:1048e0000900780034fe07000000e00047003200b5
:1048f0000920b0000a45e9008a4f56004300320003
:1049000001202000090078002bfe07000000e000d5
:104910003e0032000b202000898545008b04780082
:104920000a44e90008457800012020000b007800c7
:1049300021fe07000000e000340032000920b00032
:104940000845e90001202000090078001afe070050
:104950000000e0002d00320000402000808445006f
:1049600008c5e900012020000900780012fe0700b8
:104970000000e00025003200006020008084450037
:104980006345540001202000090078000afe07005a
:104990000000e0001d0032000080200080844500ff
:1049a00064455400012020000900780002fe070041
:1049b0000000e0001500320000a0200080844500c7
:1049c000654554000120200009007800fafd070029
:1049d0000000e0000d00320000c02000808445008f
:1049e000664554000120200009007800f2fd070010
:1049f0000000e0000500320000e020008084450057
:104a0000674554008a4f5600bdff3a000a447800bb
:104a10006011b800c0c0b30041fe07005aff370064
:104a200010c1b3003efe07000004e00002003200a7
:104a300018c0b30054ff370001202000090078009f
:104a4000ddfd07000000e000f9ff32000a447800b5
:104a50004dff3700400020004f0678004f05be0094
:104a60004f04be000000060050ff3700889fbe00c4
:104a70008a9fbe008c1f7800810578000204be006a
:104a8000044578000004e000c0003a000404e0009f
:104a9000be0032006cd7bf00310020000008a30028
:104aa00095003a006cd7bf0064066000210020002a
:104ab00091003a00b0ba80000038a300990032009b
:104ac000e14f55009c00320066006000a5003a00ee
:104ad0000801be0090c1b30011fe07000004e00011
:104ae00081003a008a4478000046eb000a40e90061
:104af00067446000dd010700dcfd07000000e00006
:104b0000730032000b20b0008a44e900894f560040
:104b10006f0032000804e00031003200e14f540021
:104b200028003200e24f540021003200e34f5400cd
:104b30001a003200e44f540013003200e54f5400d5
:104b40000c003200e64f540005003200c701070098
:104b5000c6fd07000000e0005d003200c60107004e
:104b6000c2010700c1fd07000000e000580032004c
:104b7000c1010700bd010700bcfd07000000e00007
:104b800053003200bc010700b8010700b7fd070061
:104b90000000e0004e003200b7010700b30107003b
:104ba000b2fd07000000e00049003200b20107003a
:104bb000ae010700adfd07000000e0004400320038
:104bc000ad010700a9010700a8fd07000000e000f3
:104bd0003f003200a8010700894f56003c00320018
:104be000a2010700a1fd07000000e000380032002c
:104bf0000a2020000b0545008a0578000944e900d9
:104c000088447800c1cfb3000a00780097fd070000
:104c10000000e0002e0032000b20b0008844e900c4
:104c20009201070091fd07000000e000280032001b
:104c3000004020008005450088c4e9008b01070082
:104c40008afd07000000e000210032000060200023
:104c500080054500e34454008401070083fd0700fc
:104c60000000e0001a0032000080200080054500ae
:104c7000e44454007d0107007cfd07000000e000d3
:104c80001300320000a0200080054500e5445400d8
:104c90007601070075fd07000000e0000c003200ff
:104ca00000c0200080054500e64454006f01070065
:104cb0006efd07000000e0000500320000e020006b
:104cc00080054500e7445400894f5600c4ff3a0070
:104cd00009457800d1cfb3000000eb0063fd070069
:104ce0000000e000190032001dfd07008000eb000d
:104cf0000a04e00005003a00010078004f06780041
:104d00004f05be004f04be0000000600100020004a
:104d10004f0678004f05be004f04be00000006009d
:104d2000faff3700c918dd00c714de00898470005f
:104d30004914dd0062ff37000801be0080c1b300e6
:104d400077fd07000004e000160032001ac0b3002f
:104d500003fd07008000eb000a04e000e6ff3200dc
:104d6000eaff37000a81fb000300200070c9b3008e
:104d70006bfd07000801be0090c1b30068fd07008d
:104d80000004e000d8ff3a0056ff37004000200042
:104d90004f0678004f05be004f04be00000006001d
:104da000daff3700e1cfb3000b0078002ffd0700da
:104db0000000e000e5ff32000c457800e8fc070049
:104dc0008000eb000a04e000cbff3200cfff370089
:104dd0001000fa00889fbe008a1f78000205780044
:104de000480020000004e00010003a006cd7bf002b
:104df000e1046000380020000c003a00eacf5000c7
:104e0000270032000e003e00e1cf50002a003200a1
:104e100044003900e2cf5000bb003200e3cf500025
:104e20007400320048002000cdfc07000800780024
:104e30004f0578004f04be000080fa000000060015
:104e4000eccf5000240032002f003900edcf50008d
:104e500099003200eecf5000f2ff3a005657ab00f7
:104e60001a0032006011b800d0c8b3002cfd070052
:104e70000004e00015003a0000c0eb00a3fc0700ae
:104e8000010420000a007800cbfc07000000e000cd
:104e90000e0032000004eb00b1fc0700e3ff370016
:104ea000617521009140780001497800090478007b
:104eb000abfc0700ddff37006011b80090c0b30005
:104ec00017fd07000004e0001d003200180020005c
:104ed000a3fc0700d5ff37006011b800a0c0b300e5
:104ee0000ffd07000004e000f8ff3a000101200078
:104ef0000a007800b0fc07000000e000f3ff320079
:104f00000004eb00e4ff37006011b80090c0b3006c
:104f100003fd07000004e000f4ff32001800200049
:104f2000ebff370093fc07000000e000e7ff3200d2
:104f30008bfc07000904780089fc0700bbff3700e1
:104f400001012000768057009bfc07000000e00074
:104f5000deff3200afe897000180fb004600de0074
:104f6000e14f50008b0032002ff097000080fb00d3
:104f70004600de001ff197000281fb004211dd00b8
:104f8000020040000ff19700630161004a11dd004b
:104f9000020040000000e80001002000ffe9970047
:104fa000efc161004ff197000208b2004791de00a7
:104fb00082c141003ff1970063016100020141009d
:104fc00082c1410083c1e8008381fb00e981510077
:104fd0008301e900030033000000400081804800a5
:104fe000fbff3700008dbe00090478005cfc070061
:104ff0008eff3700b0ba80006404600047003200c2
:105000006011b800d0c8b300c5fc07000004e00080
:10501000aeff3a0000c0eb003cfc0700010120009d
:105020007680570064fc070008c3b3000000e0006e
:10503000a6ff320000c0eb0034fc07000844e90082
:1050400000c0eb0031fc070000c0eb002ffc0700a4
:1050500000c0eb002dfc070000c0eb002bfc07009c
:1050600000c0eb0029fc070000c0eb0027fc070094
:1050700000c0eb0025fc070067445400edff3a0038
:105080004ff197000281fb004411de000001200077
:10509000010020000201e90003003300000040008d
:1050a00081804800fbff3700008dbe000004eb004c
:1050b0002bfc07005dff37006011b800a0c3b300f0
:1050c00097fc07000004e00080ff3a0000c0eb00fe
:1050d0000efc0700004d780000c0eb000bfc070041
:1050e0001045980000c0eb0008fc07002045980020
:1050f00000c0eb0005fc070030459800090478006b
:1051000017fc070049ff3700002020000009780045
:105110000904780012fc070044ff37006011b80052
:1051200090c0b3007efc07000004e00067ff3a0077
:1051300001012000768057001ffc07000000e000fe
:1051400062ff3200b0ba8000620260002a003200c2
:105150004ff09700f003b200000040005ff19700ad
:105160000208b2004711de00020040000000e80023
:105170007ff197000281fb004611de000201e90089
:105180000200dd0001002000008dbe00f4fb0700de
:1051900026ff37003ff197000281fb002ff09700b8
:1051a0004800dd00000141001ff297000482fb006f
:1051b0000500200004007800f003b2000100200088
:1051c000c000dd000000200002014000e081480036
:1051d00061014100e08149004a18dd00c611de008e
:1051e000830170004a11dd00028dbe0005047800c5
:1051f000dbfb07000dff37005ff097000080fb002e
:105200004ff19700c207b2004291de000201e800b0
:10521000e3006000c308dd004500de008080400040
:105220008100e8000191b900028dbe0004047800fd
:10523000cbfb0700fdfe3700d0ba80000000e00085
:10524000020032000000e900d0ba8800c0ba800035
:105250000000e000020032000000e900c0ba88004f
:1052600090cfb3006c77b60000000600c1cfb3004a
:105270000b007800000006000b20b0008944e90014
:105280000000060000027800f0072000800f5200a6
:10529000360036000100e0000a0032008000eb001a
:1052a000f00f2000800f520004003e000400420076
:1052b000a1452f0001004000800097000100780008
:1052c00000000600a0452f0005082000900f5200a6
:1052d000210032008101e800830078000081e800ad
:1052e000920f52001c0032008300e8000280e800a8
:1052f000900f5200180032008380e80064004100e3
:10530000900f520014003200e3804100660041001b
:10531000900f520010003200e4804100680041000c
:10532000900f52000c003200e58041006a004100fd
:10533000900f520008003200e68041006c004100ee
:10534000900f520004003200e78041006e004100df
:10535000858f5000ddff3a000108b000f10fb20068
:105360000100780000000600d6ff37000400780036
:1053700000000600d3ff37008001780010062000ef
:10538000808f51000d0032008000eb00c2732f00af
:105390008100e800120078000000e00009003200ff
:1053a0000281e800830f5000f9ff3a00818040003d
:1053b000a0552f0061007800000006008000eb007f
:1053c000faff3700030078000000060001027800b1
:1053d0008200e900e18f4000320032008001780055
:1053e000010040000001e800030050006700600079
:1053f000b4597800828f51002a0032000000e0008a
:1054000015003200e10f500010003200e20f500092
:105410000d003200e30f50000a003200e40f50008c
:1054200007003200e50f500004003200e60f500084
:1054300001003200b4597800b4597800b4597800aa
:10544000b4597800b4597800b4597800b459780048
:10545000828f510013003200b45978008300780025
:1054600004007800b459780094497800a041900075
:10547000a3409800b0419000b3409800c041900014
:10548000c3409800d0419000d3409800e041900084
:10549000e3409800e781400067024000828f51009e
:1054a000edff3a00000006000201e900e10f4100b3
:1054b0002c00320001427800800178000200400098
:1054c0000001e80003005000670060008159780087
:1054d000828f5100230032000000e00015003200ee
:1054e000e10f500010003200e20f50000d003200ba
:1054f000e30f50000a003200e40f500007003200b2
:10550000e50f500004003200e60f500001003200a9
:10551000815978008159780084597800845978003d
:10552000845978008459780084597800828f51001a
:105530000c00320084597800030078008459780008
:1055400084497800244098003440980044409800f2
:105550005440980064409800e7014000828f510059
:10556000f4ff3a0000000600000178009041780046
:105570000000eb000304e000090032000300fb0020
:10558000808f500006003200524078000004e00096
:10559000040032000000fb00808f5000faff3a0048
:1055a0000000060000000500889fbe008a9fbe0024
:1055b0008c9fbe0000057800404090000004e00091
:1055c00006003a008000eb00010078004f06be00a4
:1055d0004f05be004f04be00000006001a1c9000dc
:1055e000aa1c90006d0320008a8646001a40900095
:1055f00014c0b3000801be008d0078001bfd070039
:10560000110020000000e000efff3a004045980044
:105610003a109000ca109000800f5400818f5c00f7
:10562000e8ff39007a0990008a11900000004100db
:1056300081804900800f5400818f5c00e1ff3100c0
:105640003a4090000086fb00e10f5600ddff360077
:105650000c80e900e70560005400320008044100b6
:10566000898449001a40900014c0b3000801be00ac
:105670008d007800fdfc07000c06e900e10f5600e4
:10568000d0ff36007a0990008a119000e18f550012
:1056900046003200e28f55003a003200e38f550099
:1056a0002e003200e48f550022003200e58f5500b5
:1056b00016003200e68f55000a003200080441004f
:1056c000898449001a40900014c0b3000801be004c
:1056d0008d007800e5fc07000c06e9007a099000cf
:1056e0008a11900008044100898449001a40900002
:1056f00014c0b3000801be008d007800dbfc070079
:105700000c06e9007a0990008a1190000804410013
:10571000898449001a40900014c0b3000801be00fb
:105720008d007800d1fc07000c06e9007a09900092
:105730008a11900008044100898449001a409000b1
:1057400014c0b3000801be008d007800c7fc07003c
:105750000c06e9007a0990008a11900008044100c3
:10576000898449001a40900014c0b3000801be00ab
:105770008d007800bdfc07000c06e9007a09900056
:105780008a11900008044100898449001a40900061
:1057900014c0b3000801be008d007800b3fc070000
:1057a0000c06e9007a0990008a1190000804410073
:1057b000898449001a40900014c0b3000801be005b
:1057c0008d007800a9fc07008c05e900e18f5500e9
:1057d0007cff36007a0990008a119000080441008d
:1057e000898449001a40900014c0b3000801be002b
:1057f0008d0078009dfc07007a0990008a119000c6
:1058000008044100898449001a40900014c0b30084
:105810000801be008d00780094fc07007a09900012
:105820008a11900008044100898449001a409000c0
:1058300014c0b3000801be008d0078008bfc070087
:105840007a0990008a119000080441008984490077
:105850001a40900014c0b3000801be008d0078000b
:1058600082fc07007a0990008a1190000804410028
:10587000898449001a40900014c0b3000801be009a
:105880008d00780079fc07007a0990008a11900059
:1058900008044100898449001a40900014c0b300f4
:1058a0000801be008d00780070fc07007a099000a6
:1058b0008a11900008044100898449001a40900030
:1058c00014c0b3000801be008d00780067fc07001b
:1058d000678655007a0990008a119000b3ff37005f
:1058e000889fbe008a1f7800000578000204be0071
:1058f000a0189000101890000001eb00880f5000d5
:10590000898f5800050032000a00780026ff070042
:105910000000e000050032001200200002007800c4
:105920004f0578004f04be00000006006103200010
:105930008a8040001a40900014c0b3000801be00e5
:105940007cfb07000000e000f3ff3a00181d980000
:10595000291d9800000078004f0578004f04be0014
:1059600000000600f1ff3700889fbe008a1f780004
:10597000800478000cff0700000578000000e000bc
:105980000a003a0030c0b300994f100010003200f6
:10599000194090000001eb008040eb000cfd070077
:1059a0001a0020000000e000040032000a00780025
:1059b0004f0578004f04be0000000600000078008c
:1059c0004f0578004f04be0000000600fbff3700c3
:1059d000594090000004e000edff32006000b80084
:1059e000901c9800a11c9800680320000904440042
:1059f000022020008a00780008007800aafe070034
:105a000050c5b30060fc9b00a0cab30070fc9b00b3
:105a100020c5b300004c7800f074980012c6b300a3
:105a2000827c980011c4b300917c980020c7b30019
:105a300040e49b0050e49b0061e49b0072e49b0007
:105a40006948900000ec9b007948900010ec9b00a6
:105a50000950900020ec9b001950900030ec9b0006
:105a60002948900040ec9b003948900050ec9b0086
:105a70004948900060ec9b005948900070ec9b00f6
:105a800019099000a90990001940900014c0b300b2
:105a900088007800f5fb0700da4498001940900070
:105aa0000001eb008040eb00c9fc07001a00200059
:105ab0000000e000bdff3a00c0ff3700000378009f
:105ac00062025100e0825900e00890005008900006
:105ad00062005000e08058006011b800800f520052
:105ae000818f5a0009003100264090006d1f070089
:105af0000021b8000580b9008301400076109000b5
:105b00008618900002014000838148000200be0018
:105b100000000600889fbe008a9fbe000005780036
:105b20000204be00611f070082003600071f070045
:105b3000800031001a407800e24f50000900320026
:105b4000e34f500022003200e14f50004e0032007f
:105b50000080eb008080eb004f05be004f04be00cc
:105b6000000006004818dd004811de000201700048
:105b7000c819de003a109000ca10900002014000df
:105b8000838148000a00780055ff07000000e0000c
:105b9000efff3a00620320000a01410008004400c0
:105ba00089804c00f01fb2000001410012409000bb
:105bb0004800dd009280fb00010070000100200021
:105bc0004f05be004f04be0000000600e5ff370091
:105bd0004918dd004711de0002017000c719de0020
:105be0003a109000ca1090000201400083814800e2
:105bf0000a0078003aff07000000e000d4ff3a00f6
:105c0000640320000a0242004248dd00ce40de006c
:105c1000810070004240dd00f01fb200000242002f
:105c200034419000c811dd000200200024409000a3
:105c30008080fb0000002000000171008181710064
:105c4000144090004800dd000100200000017100b8
:105c500081817100144078000080fb000100200069
:105c60000001710081817100f0ff200003006000dd
:105c700080007800020078004f05be004f04be008f
:105c800000000600b7ff3700820478000200d10050
:105c9000000441004941de003a109000ca10900013
:105ca00002014000e08148000a0078000cff070074
:105cb0000000e000a6ff3a0008007800f01fb200e4
:105cc0006003b0000a0040009085fb000804e80073
